{
  "_format": "hh-sol-artifact-1",
  "contractName": "AINFT",
  "sourceName": "contracts/AINFT.sol",
  "abi": [
    {
      "inputs": [],
      "stateMutability": "nonpayable",
      "type": "constructor"
    },
    {
      "inputs": [
        {
          "internalType": "address",
          "name": "sender",
          "type": "address"
        },
        {
          "internalType": "uint256",
          "name": "tokenId",
          "type": "uint256"
        },
        {
          "internalType": "address",
          "name": "owner",
          "type": "address"
        }
      ],
      "name": "ERC721IncorrectOwner",
      "type": "error"
    },
    {
      "inputs": [
        {
          "internalType": "address",
          "name": "operator",
          "type": "address"
        },
        {
          "internalType": "uint256",
          "name": "tokenId",
          "type": "uint256"
        }
      ],
      "name": "ERC721InsufficientApproval",
      "type": "error"
    },
    {
      "inputs": [
        {
          "internalType": "address",
          "name": "approver",
          "type": "address"
        }
      ],
      "name": "ERC721InvalidApprover",
      "type": "error"
    },
    {
      "inputs": [
        {
          "internalType": "address",
          "name": "operator",
          "type": "address"
        }
      ],
      "name": "ERC721InvalidOperator",
      "type": "error"
    },
    {
      "inputs": [
        {
          "internalType": "address",
          "name": "owner",
          "type": "address"
        }
      ],
      "name": "ERC721InvalidOwner",
      "type": "error"
    },
    {
      "inputs": [
        {
          "internalType": "address",
          "name": "receiver",
          "type": "address"
        }
      ],
      "name": "ERC721InvalidReceiver",
      "type": "error"
    },
    {
      "inputs": [
        {
          "internalType": "address",
          "name": "sender",
          "type": "address"
        }
      ],
      "name": "ERC721InvalidSender",
      "type": "error"
    },
    {
      "inputs": [
        {
          "internalType": "uint256",
          "name": "tokenId",
          "type": "uint256"
        }
      ],
      "name": "ERC721NonexistentToken",
      "type": "error"
    },
    {
      "inputs": [
        {
          "internalType": "address",
          "name": "owner",
          "type": "address"
        }
      ],
      "name": "OwnableInvalidOwner",
      "type": "error"
    },
    {
      "inputs": [
        {
          "internalType": "address",
          "name": "account",
          "type": "address"
        }
      ],
      "name": "OwnableUnauthorizedAccount",
      "type": "error"
    },
    {
      "anonymous": false,
      "inputs": [
        {
          "indexed": true,
          "internalType": "address",
          "name": "owner",
          "type": "address"
        },
        {
          "indexed": true,
          "internalType": "address",
          "name": "approved",
          "type": "address"
        },
        {
          "indexed": true,
          "internalType": "uint256",
          "name": "tokenId",
          "type": "uint256"
        }
      ],
      "name": "Approval",
      "type": "event"
    },
    {
      "anonymous": false,
      "inputs": [
        {
          "indexed": true,
          "internalType": "address",
          "name": "owner",
          "type": "address"
        },
        {
          "indexed": true,
          "internalType": "address",
          "name": "operator",
          "type": "address"
        },
        {
          "indexed": false,
          "internalType": "bool",
          "name": "approved",
          "type": "bool"
        }
      ],
      "name": "ApprovalForAll",
      "type": "event"
    },
    {
      "anonymous": false,
      "inputs": [
        {
          "indexed": false,
          "internalType": "uint256",
          "name": "_fromTokenId",
          "type": "uint256"
        },
        {
          "indexed": false,
          "internalType": "uint256",
          "name": "_toTokenId",
          "type": "uint256"
        }
      ],
      "name": "BatchMetadataUpdate",
      "type": "event"
    },
    {
      "anonymous": false,
      "inputs": [
        {
          "indexed": false,
          "internalType": "uint256",
          "name": "_tokenId",
          "type": "uint256"
        }
      ],
      "name": "MetadataUpdate",
      "type": "event"
    },
    {
      "anonymous": false,
      "inputs": [
        {
          "indexed": true,
          "internalType": "address",
          "name": "to",
          "type": "address"
        },
        {
          "indexed": true,
          "internalType": "uint256",
          "name": "tokenId",
          "type": "uint256"
        },
        {
          "indexed": false,
          "internalType": "string",
          "name": "tokenURI",
          "type": "string"
        }
      ],
      "name": "Minted",
      "type": "event"
    },
    {
      "anonymous": false,
      "inputs": [
        {
          "indexed": true,
          "internalType": "address",
          "name": "previousOwner",
          "type": "address"
        },
        {
          "indexed": true,
          "internalType": "address",
          "name": "newOwner",
          "type": "address"
        }
      ],
      "name": "OwnershipTransferred",
      "type": "event"
    },
    {
      "anonymous": false,
      "inputs": [
        {
          "indexed": false,
          "internalType": "address",
          "name": "sender",
          "type": "address"
        },
        {
          "indexed": false,
          "internalType": "uint256",
          "name": "amount",
          "type": "uint256"
        }
      ],
      "name": "Received",
      "type": "event"
    },
    {
      "anonymous": false,
      "inputs": [
        {
          "indexed": true,
          "internalType": "address",
          "name": "from",
          "type": "address"
        },
        {
          "indexed": true,
          "internalType": "address",
          "name": "to",
          "type": "address"
        },
        {
          "indexed": true,
          "internalType": "uint256",
          "name": "tokenId",
          "type": "uint256"
        }
      ],
      "name": "Transfer",
      "type": "event"
    },
    {
      "inputs": [
        {
          "internalType": "address",
          "name": "to",
          "type": "address"
        },
        {
          "internalType": "string",
          "name": "tokenURI",
          "type": "string"
        }
      ],
      "name": "adminMint",
      "outputs": [
        {
          "internalType": "uint256",
          "name": "",
          "type": "uint256"
        }
      ],
      "stateMutability": "nonpayable",
      "type": "function"
    },
    {
      "inputs": [
        {
          "internalType": "address",
          "name": "",
          "type": "address"
        }
      ],
      "name": "allowedMinters",
      "outputs": [
        {
          "internalType": "bool",
          "name": "",
          "type": "bool"
        }
      ],
      "stateMutability": "view",
      "type": "function"
    },
    {
      "inputs": [
        {
          "internalType": "address",
          "name": "to",
          "type": "address"
        },
        {
          "internalType": "uint256",
          "name": "tokenId",
          "type": "uint256"
        }
      ],
      "name": "approve",
      "outputs": [],
      "stateMutability": "nonpayable",
      "type": "function"
    },
    {
      "inputs": [
        {
          "internalType": "address",
          "name": "owner",
          "type": "address"
        }
      ],
      "name": "balanceOf",
      "outputs": [
        {
          "internalType": "uint256",
          "name": "",
          "type": "uint256"
        }
      ],
      "stateMutability": "view",
      "type": "function"
    },
    {
      "inputs": [
        {
          "internalType": "uint256",
          "name": "tokenId",
          "type": "uint256"
        }
      ],
      "name": "burn",
      "outputs": [],
      "stateMutability": "nonpayable",
      "type": "function"
    },
    {
      "inputs": [
        {
          "internalType": "uint256",
          "name": "tokenId",
          "type": "uint256"
        }
      ],
      "name": "getApproved",
      "outputs": [
        {
          "internalType": "address",
          "name": "",
          "type": "address"
        }
      ],
      "stateMutability": "view",
      "type": "function"
    },
    {
      "inputs": [
        {
          "internalType": "address",
          "name": "owner",
          "type": "address"
        },
        {
          "internalType": "address",
          "name": "operator",
          "type": "address"
        }
      ],
      "name": "isApprovedForAll",
      "outputs": [
        {
          "internalType": "bool",
          "name": "",
          "type": "bool"
        }
      ],
      "stateMutability": "view",
      "type": "function"
    },
    {
      "inputs": [
        {
          "internalType": "address",
          "name": "",
          "type": "address"
        }
      ],
      "name": "lastMintTimestamp",
      "outputs": [
        {
          "internalType": "uint256",
          "name": "",
          "type": "uint256"
        }
      ],
      "stateMutability": "view",
      "type": "function"
    },
    {
      "inputs": [
        {
          "internalType": "address",
          "name": "",
          "type": "address"
        }
      ],
      "name": "mintLimit",
      "outputs": [
        {
          "internalType": "uint256",
          "name": "",
          "type": "uint256"
        }
      ],
      "stateMutability": "view",
      "type": "function"
    },
    {
      "inputs": [
        {
          "internalType": "string",
          "name": "tokenURI",
          "type": "string"
        }
      ],
      "name": "mintNFT",
      "outputs": [
        {
          "internalType": "uint256",
          "name": "",
          "type": "uint256"
        }
      ],
      "stateMutability": "nonpayable",
      "type": "function"
    },
    {
      "inputs": [],
      "name": "mintingWindow",
      "outputs": [
        {
          "internalType": "uint256",
          "name": "",
          "type": "uint256"
        }
      ],
      "stateMutability": "view",
      "type": "function"
    },
    {
      "inputs": [],
      "name": "name",
      "outputs": [
        {
          "internalType": "string",
          "name": "",
          "type": "string"
        }
      ],
      "stateMutability": "view",
      "type": "function"
    },
    {
      "inputs": [],
      "name": "owner",
      "outputs": [
        {
          "internalType": "address",
          "name": "",
          "type": "address"
        }
      ],
      "stateMutability": "view",
      "type": "function"
    },
    {
      "inputs": [
        {
          "internalType": "uint256",
          "name": "tokenId",
          "type": "uint256"
        }
      ],
      "name": "ownerOf",
      "outputs": [
        {
          "internalType": "address",
          "name": "",
          "type": "address"
        }
      ],
      "stateMutability": "view",
      "type": "function"
    },
    {
      "inputs": [],
      "name": "renounceOwnership",
      "outputs": [],
      "stateMutability": "nonpayable",
      "type": "function"
    },
    {
      "inputs": [
        {
          "internalType": "address",
          "name": "user",
          "type": "address"
        }
      ],
      "name": "resetMintTimestamp",
      "outputs": [],
      "stateMutability": "nonpayable",
      "type": "function"
    },
    {
      "inputs": [
        {
          "internalType": "address",
          "name": "from",
          "type": "address"
        },
        {
          "internalType": "address",
          "name": "to",
          "type": "address"
        },
        {
          "internalType": "uint256",
          "name": "tokenId",
          "type": "uint256"
        }
      ],
      "name": "safeTransferFrom",
      "outputs": [],
      "stateMutability": "nonpayable",
      "type": "function"
    },
    {
      "inputs": [
        {
          "internalType": "address",
          "name": "from",
          "type": "address"
        },
        {
          "internalType": "address",
          "name": "to",
          "type": "address"
        },
        {
          "internalType": "uint256",
          "name": "tokenId",
          "type": "uint256"
        },
        {
          "internalType": "bytes",
          "name": "data",
          "type": "bytes"
        }
      ],
      "name": "safeTransferFrom",
      "outputs": [],
      "stateMutability": "nonpayable",
      "type": "function"
    },
    {
      "inputs": [
        {
          "internalType": "address",
          "name": "minter",
          "type": "address"
        },
        {
          "internalType": "bool",
          "name": "allowed",
          "type": "bool"
        }
      ],
      "name": "setAllowedMinter",
      "outputs": [],
      "stateMutability": "nonpayable",
      "type": "function"
    },
    {
      "inputs": [
        {
          "internalType": "address",
          "name": "operator",
          "type": "address"
        },
        {
          "internalType": "bool",
          "name": "approved",
          "type": "bool"
        }
      ],
      "name": "setApprovalForAll",
      "outputs": [],
      "stateMutability": "nonpayable",
      "type": "function"
    },
    {
      "inputs": [
        {
          "internalType": "bytes4",
          "name": "interfaceId",
          "type": "bytes4"
        }
      ],
      "name": "supportsInterface",
      "outputs": [
        {
          "internalType": "bool",
          "name": "",
          "type": "bool"
        }
      ],
      "stateMutability": "view",
      "type": "function"
    },
    {
      "inputs": [],
      "name": "symbol",
      "outputs": [
        {
          "internalType": "string",
          "name": "",
          "type": "string"
        }
      ],
      "stateMutability": "view",
      "type": "function"
    },
    {
      "inputs": [],
      "name": "tokenCount",
      "outputs": [
        {
          "internalType": "uint256",
          "name": "",
          "type": "uint256"
        }
      ],
      "stateMutability": "view",
      "type": "function"
    },
    {
      "inputs": [
        {
          "internalType": "uint256",
          "name": "tokenId",
          "type": "uint256"
        }
      ],
      "name": "tokenURI",
      "outputs": [
        {
          "internalType": "string",
          "name": "",
          "type": "string"
        }
      ],
      "stateMutability": "view",
      "type": "function"
    },
    {
      "inputs": [
        {
          "internalType": "address",
          "name": "from",
          "type": "address"
        },
        {
          "internalType": "address",
          "name": "to",
          "type": "address"
        },
        {
          "internalType": "uint256",
          "name": "tokenId",
          "type": "uint256"
        }
      ],
      "name": "transferFrom",
      "outputs": [],
      "stateMutability": "nonpayable",
      "type": "function"
    },
    {
      "inputs": [
        {
          "internalType": "address",
          "name": "newOwner",
          "type": "address"
        }
      ],
      "name": "transferOwnership",
      "outputs": [],
      "stateMutability": "nonpayable",
      "type": "function"
    },
    {
      "inputs": [],
      "name": "withdraw",
      "outputs": [],
      "stateMutability": "nonpayable",
      "type": "function"
    },
    {
      "stateMutability": "payable",
      "type": "receive"
    }
  ],
  "bytecode": "0x60806040526201518060095534801561001757600080fd5b506040518060400160405280600a81526020017f414920417274204e4654000000000000000000000000000000000000000000008152506040518060400160405280600581526020017f41494e465400000000000000000000000000000000000000000000000000000081525033600073ffffffffffffffffffffffffffffffffffffffff168173ffffffffffffffffffffffffffffffffffffffff16036100f75760006040517f1e4fbdf70000000000000000000000000000000000000000000000000000000081526004016100ee9190610233565b60405180910390fd5b6101068161012e60201b60201c565b508160019081610116919061049e565b508060029081610126919061049e565b505050610570565b60008060009054906101000a900473ffffffffffffffffffffffffffffffffffffffff169050816000806101000a81548173ffffffffffffffffffffffffffffffffffffffff021916908373ffffffffffffffffffffffffffffffffffffffff1602179055508173ffffffffffffffffffffffffffffffffffffffff168173ffffffffffffffffffffffffffffffffffffffff167f8be0079c531659141344cd1fd0a4f28419497f9722a3daafe3b4186f6b6457e060405160405180910390a35050565b600073ffffffffffffffffffffffffffffffffffffffff82169050919050565b600061021d826101f2565b9050919050565b61022d81610212565b82525050565b60006020820190506102486000830184610224565b92915050565b600081519050919050565b7f4e487b7100000000000000000000000000000000000000000000000000000000600052604160045260246000fd5b7f4e487b7100000000000000000000000000000000000000000000000000000000600052602260045260246000fd5b600060028204905060018216806102cf57607f821691505b6020821081036102e2576102e1610288565b5b50919050565b60008190508160005260206000209050919050565b60006020601f8301049050919050565b600082821b905092915050565b60006008830261034a7fffffffffffffffffffffffffffffffffffffffffffffffffffffffffffffffff8261030d565b610354868361030d565b95508019841693508086168417925050509392505050565b6000819050919050565b6000819050919050565b600061039b6103966103918461036c565b610376565b61036c565b9050919050565b6000819050919050565b6103b583610380565b6103c96103c1826103a2565b84845461031a565b825550505050565b600090565b6103de6103d1565b6103e98184846103ac565b505050565b5b8181101561040d576104026000826103d6565b6001810190506103ef565b5050565b601f82111561045257610423816102e8565b61042c846102fd565b8101602085101561043b578190505b61044f610447856102fd565b8301826103ee565b50505b505050565b600082821c905092915050565b600061047560001984600802610457565b1980831691505092915050565b600061048e8383610464565b9150826002028217905092915050565b6104a78261024e565b67ffffffffffffffff8111156104c0576104bf610259565b5b6104ca82546102b7565b6104d5828285610411565b600060209050601f83116001811461050857600084156104f6578287015190505b6105008582610482565b865550610568565b601f198416610516866102e8565b60005b8281101561053e57848901518255600182019150602085019450602081019050610519565b8683101561055b5784890151610557601f891682610464565b8355505b6001600288020188555050505b505050505050565b6131f98061057f6000396000f3fe6080604052600436106101a05760003560e01c806370a08231116100ec578063be13197b1161008a578063e985e9c511610064578063e985e9c51461061a578063ecc06ae614610657578063f2fde38b14610694578063fb37e883146106bd576101e0565b8063be13197b14610577578063c1234f05146105b4578063c87b56dd146105dd576101e0565b806395d89b41116100c657806395d89b41146104cf5780639f181b5e146104fa578063a22cb46514610525578063b88d4fde1461054e576101e0565b806370a0823114610450578063715018a61461048d5780638da5cb5b146104a4576101e0565b8063423afa66116101595780635919c74b116101335780635919c74b146103825780636352211e146103bf57806367d8c91b146103fc5780636af9c20514610427576101e0565b8063423afa66146102f357806342842e0e1461033057806342966c6814610359576101e0565b806301ffc9a7146101e557806306fdde0314610222578063081812fc1461024d578063095ea7b31461028a57806323b872dd146102b35780633ccfd60b146102dc576101e0565b366101e0577f88a5966d370b9919b20f3e2c13ff65706f196a4e32cc2c12bf57088f8852587433346040516101d6929190612412565b60405180910390a1005b600080fd5b3480156101f157600080fd5b5061020c600480360381019061020791906124a7565b6106fa565b60405161021991906124ef565b60405180910390f35b34801561022e57600080fd5b5061023761075b565b604051610244919061259a565b60405180910390f35b34801561025957600080fd5b50610274600480360381019061026f91906125e8565b6107ed565b6040516102819190612615565b60405180910390f35b34801561029657600080fd5b506102b160048036038101906102ac919061265c565b610809565b005b3480156102bf57600080fd5b506102da60048036038101906102d5919061269c565b61081f565b005b3480156102e857600080fd5b506102f1610921565b005b3480156102ff57600080fd5b5061031a600480360381019061031591906126ef565b610979565b60405161032791906124ef565b60405180910390f35b34801561033c57600080fd5b506103576004803603810190610352919061269c565b610999565b005b34801561036557600080fd5b50610380600480360381019061037b91906125e8565b6109b9565b005b34801561038e57600080fd5b506103a960048036038101906103a49190612851565b610a3b565b6040516103b691906128ad565b60405180910390f35b3480156103cb57600080fd5b506103e660048036038101906103e191906125e8565b610ad1565b6040516103f39190612615565b60405180910390f35b34801561040857600080fd5b50610411610ae3565b60405161041e91906128ad565b60405180910390f35b34801561043357600080fd5b5061044e600480360381019061044991906128f4565b610ae9565b005b34801561045c57600080fd5b50610477600480360381019061047291906126ef565b610b4c565b60405161048491906128ad565b60405180910390f35b34801561049957600080fd5b506104a2610c06565b005b3480156104b057600080fd5b506104b9610c1a565b6040516104c69190612615565b60405180910390f35b3480156104db57600080fd5b506104e4610c43565b6040516104f1919061259a565b60405180910390f35b34801561050657600080fd5b5061050f610cd5565b60405161051c91906128ad565b60405180910390f35b34801561053157600080fd5b5061054c600480360381019061054791906128f4565b610cdb565b005b34801561055a57600080fd5b50610575600480360381019061057091906129d5565b610cf1565b005b34801561058357600080fd5b5061059e600480360381019061059991906126ef565b610d16565b6040516105ab91906128ad565b60405180910390f35b3480156105c057600080fd5b506105db60048036038101906105d691906126ef565b610d2e565b005b3480156105e957600080fd5b5061060460048036038101906105ff91906125e8565b610d7e565b604051610611919061259a565b60405180910390f35b34801561062657600080fd5b50610641600480360381019061063c9190612a58565b610e91565b60405161064e91906124ef565b60405180910390f35b34801561066357600080fd5b5061067e600480360381019061067991906126ef565b610f25565b60405161068b91906128ad565b60405180910390f35b3480156106a057600080fd5b506106bb60048036038101906106b691906126ef565b610f3d565b005b3480156106c957600080fd5b506106e460048036038101906106df9190612a98565b610fc3565b6040516106f191906128ad565b60405180910390f35b6000634906490660e01b7bffffffffffffffffffffffffffffffffffffffffffffffffffffffff1916827bffffffffffffffffffffffffffffffffffffffffffffffffffffffff191614806107545750610753826112c3565b5b9050919050565b60606001805461076a90612b10565b80601f016020809104026020016040519081016040528092919081815260200182805461079690612b10565b80156107e35780601f106107b8576101008083540402835291602001916107e3565b820191906000526020600020905b8154815290600101906020018083116107c657829003601f168201915b5050505050905090565b60006107f8826113a5565b506108028261142d565b9050919050565b61081b828261081661146a565b611472565b5050565b600073ffffffffffffffffffffffffffffffffffffffff168273ffffffffffffffffffffffffffffffffffffffff16036108915760006040517f64a0ae920000000000000000000000000000000000000000000000000000000081526004016108889190612615565b60405180910390fd5b60006108a583836108a061146a565b611484565b90508373ffffffffffffffffffffffffffffffffffffffff168173ffffffffffffffffffffffffffffffffffffffff161461091b578382826040517f64283d7b00000000000000000000000000000000000000000000000000000000815260040161091293929190612b41565b60405180910390fd5b50505050565b61092961169e565b610931610c1a565b73ffffffffffffffffffffffffffffffffffffffff166108fc479081150290604051600060405180830381858888f19350505050158015610976573d6000803e3d6000fd5b50565b600b6020528060005260406000206000915054906101000a900460ff1681565b6109b483838360405180602001604052806000815250610cf1565b505050565b3373ffffffffffffffffffffffffffffffffffffffff166109d982610ad1565b73ffffffffffffffffffffffffffffffffffffffff1614610a2f576040517f08c379a0000000000000000000000000000000000000000000000000000000008152600401610a2690612bc4565b60405180910390fd5b610a3881611725565b50565b6000610a4561169e565b60086000815480929190610a5890612c13565b919050555060006008549050610a6e84826117ab565b610a7881846118a4565b808473ffffffffffffffffffffffffffffffffffffffff167fe7cd4ce7f2a465edc730269a1305e8a48bad821e8fb7e152ec413829c01a53c485604051610abf919061259a565b60405180910390a38091505092915050565b6000610adc826113a5565b9050919050565b60095481565b610af161169e565b80600b60008473ffffffffffffffffffffffffffffffffffffffff1673ffffffffffffffffffffffffffffffffffffffff16815260200190815260200160002060006101000a81548160ff0219169083151502179055505050565b60008073ffffffffffffffffffffffffffffffffffffffff168273ffffffffffffffffffffffffffffffffffffffff1603610bbf5760006040517f89c62b64000000000000000000000000000000000000000000000000000000008152600401610bb69190612615565b60405180910390fd5b600460008373ffffffffffffffffffffffffffffffffffffffff1673ffffffffffffffffffffffffffffffffffffffff168152602001908152602001600020549050919050565b610c0e61169e565b610c186000611900565b565b60008060009054906101000a900473ffffffffffffffffffffffffffffffffffffffff16905090565b606060028054610c5290612b10565b80601f0160208091040260200160405190810160405280929190818152602001828054610c7e90612b10565b8015610ccb5780601f10610ca057610100808354040283529160200191610ccb565b820191906000526020600020905b815481529060010190602001808311610cae57829003601f168201915b5050505050905090565b60085481565b610ced610ce661146a565b83836119c4565b5050565b610cfc84848461081f565b610d10610d0761146a565b85858585611b33565b50505050565b600a6020528060005260406000206000915090505481565b610d3661169e565b6000600a60008373ffffffffffffffffffffffffffffffffffffffff1673ffffffffffffffffffffffffffffffffffffffff1681526020019081526020016000208190555050565b6060610d89826113a5565b506000600760008481526020019081526020016000208054610daa90612b10565b80601f0160208091040260200160405190810160405280929190818152602001828054610dd690612b10565b8015610e235780601f10610df857610100808354040283529160200191610e23565b820191906000526020600020905b815481529060010190602001808311610e0657829003601f168201915b505050505090506000610e34611ce4565b90506000815103610e49578192505050610e8c565b600082511115610e7e578082604051602001610e66929190612c97565b60405160208183030381529060405292505050610e8c565b610e8784611cfb565b925050505b919050565b6000600660008473ffffffffffffffffffffffffffffffffffffffff1673ffffffffffffffffffffffffffffffffffffffff16815260200190815260200160002060008373ffffffffffffffffffffffffffffffffffffffff1673ffffffffffffffffffffffffffffffffffffffff16815260200190815260200160002060009054906101000a900460ff16905092915050565b600c6020528060005260406000206000915090505481565b610f4561169e565b600073ffffffffffffffffffffffffffffffffffffffff168173ffffffffffffffffffffffffffffffffffffffff1603610fb75760006040517f1e4fbdf7000000000000000000000000000000000000000000000000000000008152600401610fae9190612615565b60405180910390fd5b610fc081611900565b50565b6000610fcd610c1a565b73ffffffffffffffffffffffffffffffffffffffff163373ffffffffffffffffffffffffffffffffffffffff16148061104f5750600b60003373ffffffffffffffffffffffffffffffffffffffff1673ffffffffffffffffffffffffffffffffffffffff16815260200190815260200160002060009054906101000a900460ff165b61108e576040517f08c379a000000000000000000000000000000000000000000000000000000000815260040161108590612d07565b60405180910390fd5b6005600c60003373ffffffffffffffffffffffffffffffffffffffff1673ffffffffffffffffffffffffffffffffffffffff1681526020019081526020016000205410611110576040517f08c379a000000000000000000000000000000000000000000000000000000000815260040161110790612d73565b60405180910390fd5b600954600a60003373ffffffffffffffffffffffffffffffffffffffff1673ffffffffffffffffffffffffffffffffffffffff1681526020019081526020016000205461115d9190612d93565b42101561119f576040517f08c379a000000000000000000000000000000000000000000000000000000000815260040161119690612e13565b60405180910390fd5b42600a60003373ffffffffffffffffffffffffffffffffffffffff1673ffffffffffffffffffffffffffffffffffffffff16815260200190815260200160002081905550600860008154809291906111f690612c13565b91905055506000600854905061120c3382611d64565b61121681846118a4565b600c60003373ffffffffffffffffffffffffffffffffffffffff1673ffffffffffffffffffffffffffffffffffffffff168152602001908152602001600020600081548092919061126690612c13565b9190505550803373ffffffffffffffffffffffffffffffffffffffff167fe7cd4ce7f2a465edc730269a1305e8a48bad821e8fb7e152ec413829c01a53c4856040516112b2919061259a565b60405180910390a380915050919050565b60007f80ac58cd000000000000000000000000000000000000000000000000000000007bffffffffffffffffffffffffffffffffffffffffffffffffffffffff1916827bffffffffffffffffffffffffffffffffffffffffffffffffffffffff1916148061138e57507f5b5e139f000000000000000000000000000000000000000000000000000000007bffffffffffffffffffffffffffffffffffffffffffffffffffffffff1916827bffffffffffffffffffffffffffffffffffffffffffffffffffffffff1916145b8061139e575061139d82611d82565b5b9050919050565b6000806113b183611dec565b9050600073ffffffffffffffffffffffffffffffffffffffff168173ffffffffffffffffffffffffffffffffffffffff160361142457826040517f7e27328900000000000000000000000000000000000000000000000000000000815260040161141b91906128ad565b60405180910390fd5b80915050919050565b60006005600083815260200190815260200160002060009054906101000a900473ffffffffffffffffffffffffffffffffffffffff169050919050565b600033905090565b61147f8383836001611e29565b505050565b60008061149084611dec565b9050600073ffffffffffffffffffffffffffffffffffffffff168373ffffffffffffffffffffffffffffffffffffffff16146114d2576114d1818486611fee565b5b600073ffffffffffffffffffffffffffffffffffffffff168173ffffffffffffffffffffffffffffffffffffffff161461156357611514600085600080611e29565b6001600460008373ffffffffffffffffffffffffffffffffffffffff1673ffffffffffffffffffffffffffffffffffffffff168152602001908152602001600020600082825403925050819055505b600073ffffffffffffffffffffffffffffffffffffffff168573ffffffffffffffffffffffffffffffffffffffff16146115e6576001600460008773ffffffffffffffffffffffffffffffffffffffff1673ffffffffffffffffffffffffffffffffffffffff168152602001908152602001600020600082825401925050819055505b846003600086815260200190815260200160002060006101000a81548173ffffffffffffffffffffffffffffffffffffffff021916908373ffffffffffffffffffffffffffffffffffffffff160217905550838573ffffffffffffffffffffffffffffffffffffffff168273ffffffffffffffffffffffffffffffffffffffff167fddf252ad1be2c89b69c2b068fc378daa952ba7f163c4a11628f55a4df523b3ef60405160405180910390a4809150509392505050565b6116a661146a565b73ffffffffffffffffffffffffffffffffffffffff166116c4610c1a565b73ffffffffffffffffffffffffffffffffffffffff1614611723576116e761146a565b6040517f118cdaa700000000000000000000000000000000000000000000000000000000815260040161171a9190612615565b60405180910390fd5b565b60006117346000836000611484565b9050600073ffffffffffffffffffffffffffffffffffffffff168173ffffffffffffffffffffffffffffffffffffffff16036117a757816040517f7e27328900000000000000000000000000000000000000000000000000000000815260040161179e91906128ad565b60405180910390fd5b5050565b600073ffffffffffffffffffffffffffffffffffffffff168273ffffffffffffffffffffffffffffffffffffffff160361181d5760006040517f64a0ae920000000000000000000000000000000000000000000000000000000081526004016118149190612615565b60405180910390fd5b600061182b83836000611484565b9050600073ffffffffffffffffffffffffffffffffffffffff168173ffffffffffffffffffffffffffffffffffffffff161461189f5760006040517f73c6ac6e0000000000000000000000000000000000000000000000000000000081526004016118969190612615565b60405180910390fd5b505050565b806007600084815260200190815260200160002090816118c49190612fdf565b507ff8e1a15aba9398e019f0b49df1a4fde98ee17ae345cb5f6b5e2c27f5033e8ce7826040516118f491906128ad565b60405180910390a15050565b60008060009054906101000a900473ffffffffffffffffffffffffffffffffffffffff169050816000806101000a81548173ffffffffffffffffffffffffffffffffffffffff021916908373ffffffffffffffffffffffffffffffffffffffff1602179055508173ffffffffffffffffffffffffffffffffffffffff168173ffffffffffffffffffffffffffffffffffffffff167f8be0079c531659141344cd1fd0a4f28419497f9722a3daafe3b4186f6b6457e060405160405180910390a35050565b600073ffffffffffffffffffffffffffffffffffffffff168273ffffffffffffffffffffffffffffffffffffffff1603611a3557816040517f5b08ba18000000000000000000000000000000000000000000000000000000008152600401611a2c9190612615565b60405180910390fd5b80600660008573ffffffffffffffffffffffffffffffffffffffff1673ffffffffffffffffffffffffffffffffffffffff16815260200190815260200160002060008473ffffffffffffffffffffffffffffffffffffffff1673ffffffffffffffffffffffffffffffffffffffff16815260200190815260200160002060006101000a81548160ff0219169083151502179055508173ffffffffffffffffffffffffffffffffffffffff168373ffffffffffffffffffffffffffffffffffffffff167f17307eab39ab6107e8899845ad3d59bd9653f200f220920489ca2b5937696c3183604051611b2691906124ef565b60405180910390a3505050565b60008373ffffffffffffffffffffffffffffffffffffffff163b1115611cdd578273ffffffffffffffffffffffffffffffffffffffff1663150b7a02868685856040518563ffffffff1660e01b8152600401611b929493929190613106565b6020604051808303816000875af1925050508015611bce57506040513d601f19601f82011682018060405250810190611bcb9190613167565b60015b611c52573d8060008114611bfe576040519150601f19603f3d011682016040523d82523d6000602084013e611c03565b606091505b506000815103611c4a57836040517f64a0ae92000000000000000000000000000000000000000000000000000000008152600401611c419190612615565b60405180910390fd5b805160208201fd5b63150b7a0260e01b7bffffffffffffffffffffffffffffffffffffffffffffffffffffffff1916817bffffffffffffffffffffffffffffffffffffffffffffffffffffffff191614611cdb57836040517f64a0ae92000000000000000000000000000000000000000000000000000000008152600401611cd29190612615565b60405180910390fd5b505b5050505050565b606060405180602001604052806000815250905090565b6060611d06826113a5565b506000611d11611ce4565b90506000815111611d315760405180602001604052806000815250611d5c565b80611d3b846120b2565b604051602001611d4c929190612c97565b6040516020818303038152906040525b915050919050565b611d7e828260405180602001604052806000815250612180565b5050565b60007f01ffc9a7000000000000000000000000000000000000000000000000000000007bffffffffffffffffffffffffffffffffffffffffffffffffffffffff1916827bffffffffffffffffffffffffffffffffffffffffffffffffffffffff1916149050919050565b60006003600083815260200190815260200160002060009054906101000a900473ffffffffffffffffffffffffffffffffffffffff169050919050565b8080611e625750600073ffffffffffffffffffffffffffffffffffffffff168273ffffffffffffffffffffffffffffffffffffffff1614155b15611f96576000611e72846113a5565b9050600073ffffffffffffffffffffffffffffffffffffffff168373ffffffffffffffffffffffffffffffffffffffff1614158015611edd57508273ffffffffffffffffffffffffffffffffffffffff168173ffffffffffffffffffffffffffffffffffffffff1614155b8015611ef05750611eee8184610e91565b155b15611f3257826040517fa9fbf51f000000000000000000000000000000000000000000000000000000008152600401611f299190612615565b60405180910390fd5b8115611f9457838573ffffffffffffffffffffffffffffffffffffffff168273ffffffffffffffffffffffffffffffffffffffff167f8c5be1e5ebec7d5bd14f71427d1e84f3dd0314c0f7b2291e5b200ac8c7c3b92560405160405180910390a45b505b836005600085815260200190815260200160002060006101000a81548173ffffffffffffffffffffffffffffffffffffffff021916908373ffffffffffffffffffffffffffffffffffffffff16021790555050505050565b611ff98383836121a4565b6120ad57600073ffffffffffffffffffffffffffffffffffffffff168373ffffffffffffffffffffffffffffffffffffffff160361206e57806040517f7e27328900000000000000000000000000000000000000000000000000000000815260040161206591906128ad565b60405180910390fd5b81816040517f177e802f0000000000000000000000000000000000000000000000000000000081526004016120a4929190612412565b60405180910390fd5b505050565b6060600060016120c184612265565b01905060008167ffffffffffffffff8111156120e0576120df612726565b5b6040519080825280601f01601f1916602001820160405280156121125781602001600182028036833780820191505090505b509050600082602083010190505b600115612175578080600190039150507f3031323334353637383961626364656600000000000000000000000000000000600a86061a8153600a858161216957612168613194565b5b04945060008503612120575b819350505050919050565b61218a83836117ab565b61219f61219561146a565b6000858585611b33565b505050565b60008073ffffffffffffffffffffffffffffffffffffffff168373ffffffffffffffffffffffffffffffffffffffff161415801561225c57508273ffffffffffffffffffffffffffffffffffffffff168473ffffffffffffffffffffffffffffffffffffffff16148061221d575061221c8484610e91565b5b8061225b57508273ffffffffffffffffffffffffffffffffffffffff166122438361142d565b73ffffffffffffffffffffffffffffffffffffffff16145b5b90509392505050565b600080600090507a184f03e93ff9f4daa797ed6e38ed64bf6a1f01000000000000000083106122c3577a184f03e93ff9f4daa797ed6e38ed64bf6a1f01000000000000000083816122b9576122b8613194565b5b0492506040810190505b6d04ee2d6d415b85acef81000000008310612300576d04ee2d6d415b85acef810000000083816122f6576122f5613194565b5b0492506020810190505b662386f26fc10000831061232f57662386f26fc10000838161232557612324613194565b5b0492506010810190505b6305f5e1008310612358576305f5e100838161234e5761234d613194565b5b0492506008810190505b612710831061237d57612710838161237357612372613194565b5b0492506004810190505b606483106123a0576064838161239657612395613194565b5b0492506002810190505b600a83106123af576001810190505b80915050919050565b600073ffffffffffffffffffffffffffffffffffffffff82169050919050565b60006123e3826123b8565b9050919050565b6123f3816123d8565b82525050565b6000819050919050565b61240c816123f9565b82525050565b600060408201905061242760008301856123ea565b6124346020830184612403565b9392505050565b6000604051905090565b600080fd5b600080fd5b60007fffffffff0000000000000000000000000000000000000000000000000000000082169050919050565b6124848161244f565b811461248f57600080fd5b50565b6000813590506124a18161247b565b92915050565b6000602082840312156124bd576124bc612445565b5b60006124cb84828501612492565b91505092915050565b60008115159050919050565b6124e9816124d4565b82525050565b600060208201905061250460008301846124e0565b92915050565b600081519050919050565b600082825260208201905092915050565b60005b83811015612544578082015181840152602081019050612529565b60008484015250505050565b6000601f19601f8301169050919050565b600061256c8261250a565b6125768185612515565b9350612586818560208601612526565b61258f81612550565b840191505092915050565b600060208201905081810360008301526125b48184612561565b905092915050565b6125c5816123f9565b81146125d057600080fd5b50565b6000813590506125e2816125bc565b92915050565b6000602082840312156125fe576125fd612445565b5b600061260c848285016125d3565b91505092915050565b600060208201905061262a60008301846123ea565b92915050565b612639816123d8565b811461264457600080fd5b50565b60008135905061265681612630565b92915050565b6000806040838503121561267357612672612445565b5b600061268185828601612647565b9250506020612692858286016125d3565b9150509250929050565b6000806000606084860312156126b5576126b4612445565b5b60006126c386828701612647565b93505060206126d486828701612647565b92505060406126e5868287016125d3565b9150509250925092565b60006020828403121561270557612704612445565b5b600061271384828501612647565b91505092915050565b600080fd5b600080fd5b7f4e487b7100000000000000000000000000000000000000000000000000000000600052604160045260246000fd5b61275e82612550565b810181811067ffffffffffffffff8211171561277d5761277c612726565b5b80604052505050565b600061279061243b565b905061279c8282612755565b919050565b600067ffffffffffffffff8211156127bc576127bb612726565b5b6127c582612550565b9050602081019050919050565b82818337600083830152505050565b60006127f46127ef846127a1565b612786565b9050828152602081018484840111156128105761280f612721565b5b61281b8482856127d2565b509392505050565b600082601f8301126128385761283761271c565b5b81356128488482602086016127e1565b91505092915050565b6000806040838503121561286857612867612445565b5b600061287685828601612647565b925050602083013567ffffffffffffffff8111156128975761289661244a565b5b6128a385828601612823565b9150509250929050565b60006020820190506128c26000830184612403565b92915050565b6128d1816124d4565b81146128dc57600080fd5b50565b6000813590506128ee816128c8565b92915050565b6000806040838503121561290b5761290a612445565b5b600061291985828601612647565b925050602061292a858286016128df565b9150509250929050565b600067ffffffffffffffff82111561294f5761294e612726565b5b61295882612550565b9050602081019050919050565b600061297861297384612934565b612786565b90508281526020810184848401111561299457612993612721565b5b61299f8482856127d2565b509392505050565b600082601f8301126129bc576129bb61271c565b5b81356129cc848260208601612965565b91505092915050565b600080600080608085870312156129ef576129ee612445565b5b60006129fd87828801612647565b9450506020612a0e87828801612647565b9350506040612a1f878288016125d3565b925050606085013567ffffffffffffffff811115612a4057612a3f61244a565b5b612a4c878288016129a7565b91505092959194509250565b60008060408385031215612a6f57612a6e612445565b5b6000612a7d85828601612647565b9250506020612a8e85828601612647565b9150509250929050565b600060208284031215612aae57612aad612445565b5b600082013567ffffffffffffffff811115612acc57612acb61244a565b5b612ad884828501612823565b91505092915050565b7f4e487b7100000000000000000000000000000000000000000000000000000000600052602260045260246000fd5b60006002820490506001821680612b2857607f821691505b602082108103612b3b57612b3a612ae1565b5b50919050565b6000606082019050612b5660008301866123ea565b612b636020830185612403565b612b7060408301846123ea565b949350505050565b7f596f7520617265206e6f7420746865206f776e65720000000000000000000000600082015250565b6000612bae601583612515565b9150612bb982612b78565b602082019050919050565b60006020820190508181036000830152612bdd81612ba1565b9050919050565b7f4e487b7100000000000000000000000000000000000000000000000000000000600052601160045260246000fd5b6000612c1e826123f9565b91507fffffffffffffffffffffffffffffffffffffffffffffffffffffffffffffffff8203612c5057612c4f612be4565b5b600182019050919050565b600081905092915050565b6000612c718261250a565b612c7b8185612c5b565b9350612c8b818560208601612526565b80840191505092915050565b6000612ca38285612c66565b9150612caf8284612c66565b91508190509392505050565b7f4e6f7420616c6c6f77656420746f206d696e7400000000000000000000000000600082015250565b6000612cf1601383612515565b9150612cfc82612cbb565b602082019050919050565b60006020820190508181036000830152612d2081612ce4565b9050919050565b7f4d696e74206c696d697420726561636865640000000000000000000000000000600082015250565b6000612d5d601283612515565b9150612d6882612d27565b602082019050919050565b60006020820190508181036000830152612d8c81612d50565b9050919050565b6000612d9e826123f9565b9150612da9836123f9565b9250828201905080821115612dc157612dc0612be4565b5b92915050565b7f4d696e74696e672077696e646f77206e6f742072656163686564207965740000600082015250565b6000612dfd601e83612515565b9150612e0882612dc7565b602082019050919050565b60006020820190508181036000830152612e2c81612df0565b9050919050565b60008190508160005260206000209050919050565b60006020601f8301049050919050565b600082821b905092915050565b600060088302612e957fffffffffffffffffffffffffffffffffffffffffffffffffffffffffffffffff82612e58565b612e9f8683612e58565b95508019841693508086168417925050509392505050565b6000819050919050565b6000612edc612ed7612ed2846123f9565b612eb7565b6123f9565b9050919050565b6000819050919050565b612ef683612ec1565b612f0a612f0282612ee3565b848454612e65565b825550505050565b600090565b612f1f612f12565b612f2a818484612eed565b505050565b5b81811015612f4e57612f43600082612f17565b600181019050612f30565b5050565b601f821115612f9357612f6481612e33565b612f6d84612e48565b81016020851015612f7c578190505b612f90612f8885612e48565b830182612f2f565b50505b505050565b600082821c905092915050565b6000612fb660001984600802612f98565b1980831691505092915050565b6000612fcf8383612fa5565b9150826002028217905092915050565b612fe88261250a565b67ffffffffffffffff81111561300157613000612726565b5b61300b8254612b10565b613016828285612f52565b600060209050601f8311600181146130495760008415613037578287015190505b6130418582612fc3565b8655506130a9565b601f19841661305786612e33565b60005b8281101561307f5784890151825560018201915060208501945060208101905061305a565b8683101561309c5784890151613098601f891682612fa5565b8355505b6001600288020188555050505b505050505050565b600081519050919050565b600082825260208201905092915050565b60006130d8826130b1565b6130e281856130bc565b93506130f2818560208601612526565b6130fb81612550565b840191505092915050565b600060808201905061311b60008301876123ea565b61312860208301866123ea565b6131356040830185612403565b818103606083015261314781846130cd565b905095945050505050565b6000815190506131618161247b565b92915050565b60006020828403121561317d5761317c612445565b5b600061318b84828501613152565b91505092915050565b7f4e487b7100000000000000000000000000000000000000000000000000000000600052601260045260246000fdfea2646970667358221220a99aa0f686d671ab3a18cdf1358afe889b14260cbeb16ca78c039957cb1ce1f364736f6c634300081c0033",
  "linkReferences": {},
  "deployedLinkReferences": {}
}