{
  "_format": "hh-sol-artifact-1",
  "contractName": "AINFTMarketplace",
  "sourceName": "contracts/AINFTMarketplace.sol",
  "abi": [
    {
      "inputs": [],
      "stateMutability": "nonpayable",
      "type": "constructor"
    },
    {
      "inputs": [
        {
          "internalType": "address",
          "name": "owner",
          "type": "address"
        }
      ],
      "name": "OwnableInvalidOwner",
      "type": "error"
    },
    {
      "inputs": [
        {
          "internalType": "address",
          "name": "account",
          "type": "address"
        }
      ],
      "name": "OwnableUnauthorizedAccount",
      "type": "error"
    },
    {
      "inputs": [],
      "name": "ReentrancyGuardReentrantCall",
      "type": "error"
    },
    {
      "anonymous": false,
      "inputs": [
        {
          "indexed": false,
          "internalType": "uint256",
          "name": "listingId",
          "type": "uint256"
        }
      ],
      "name": "Cancelled",
      "type": "event"
    },
    {
      "anonymous": false,
      "inputs": [
        {
          "indexed": false,
          "internalType": "uint256",
          "name": "listingId",
          "type": "uint256"
        },
        {
          "indexed": true,
          "internalType": "address",
          "name": "seller",
          "type": "address"
        },
        {
          "indexed": true,
          "internalType": "address",
          "name": "nftAddress",
          "type": "address"
        },
        {
          "indexed": false,
          "internalType": "uint256",
          "name": "tokenId",
          "type": "uint256"
        },
        {
          "indexed": false,
          "internalType": "uint256",
          "name": "price",
          "type": "uint256"
        }
      ],
      "name": "Listed",
      "type": "event"
    },
    {
      "anonymous": false,
      "inputs": [
        {
          "indexed": true,
          "internalType": "address",
          "name": "previousOwner",
          "type": "address"
        },
        {
          "indexed": true,
          "internalType": "address",
          "name": "newOwner",
          "type": "address"
        }
      ],
      "name": "OwnershipTransferred",
      "type": "event"
    },
    {
      "anonymous": false,
      "inputs": [
        {
          "indexed": false,
          "internalType": "uint256",
          "name": "listingId",
          "type": "uint256"
        },
        {
          "indexed": true,
          "internalType": "address",
          "name": "buyer",
          "type": "address"
        }
      ],
      "name": "Purchased",
      "type": "event"
    },
    {
      "inputs": [
        {
          "internalType": "uint256",
          "name": "listingId",
          "type": "uint256"
        }
      ],
      "name": "buyNFT",
      "outputs": [],
      "stateMutability": "payable",
      "type": "function"
    },
    {
      "inputs": [
        {
          "internalType": "uint256",
          "name": "listingId",
          "type": "uint256"
        }
      ],
      "name": "cancelListing",
      "outputs": [],
      "stateMutability": "nonpayable",
      "type": "function"
    },
    {
      "inputs": [],
      "name": "checkAndCancelExpiredListings",
      "outputs": [],
      "stateMutability": "nonpayable",
      "type": "function"
    },
    {
      "inputs": [],
      "name": "feePercentage",
      "outputs": [
        {
          "internalType": "uint256",
          "name": "",
          "type": "uint256"
        }
      ],
      "stateMutability": "view",
      "type": "function"
    },
    {
      "inputs": [],
      "name": "getActiveListings",
      "outputs": [
        {
          "components": [
            {
              "internalType": "address",
              "name": "seller",
              "type": "address"
            },
            {
              "internalType": "address",
              "name": "buyer",
              "type": "address"
            },
            {
              "internalType": "address",
              "name": "nftAddress",
              "type": "address"
            },
            {
              "internalType": "uint256",
              "name": "price",
              "type": "uint256"
            },
            {
              "internalType": "uint256",
              "name": "tokenId",
              "type": "uint256"
            },
            {
              "internalType": "bool",
              "name": "isActive",
              "type": "bool"
            },
            {
              "internalType": "bool",
              "name": "isSold",
              "type": "bool"
            },
            {
              "internalType": "uint256",
              "name": "expired",
              "type": "uint256"
            }
          ],
          "internalType": "struct AINFTMarketplace.Listing[]",
          "name": "",
          "type": "tuple[]"
        }
      ],
      "stateMutability": "view",
      "type": "function"
    },
    {
      "inputs": [
        {
          "internalType": "address",
          "name": "user",
          "type": "address"
        }
      ],
      "name": "getListingsByUser",
      "outputs": [
        {
          "internalType": "uint256[]",
          "name": "",
          "type": "uint256[]"
        }
      ],
      "stateMutability": "view",
      "type": "function"
    },
    {
      "inputs": [
        {
          "internalType": "address",
          "name": "user",
          "type": "address"
        }
      ],
      "name": "getPurchasedListingsByUser",
      "outputs": [
        {
          "internalType": "uint256[]",
          "name": "",
          "type": "uint256[]"
        }
      ],
      "stateMutability": "view",
      "type": "function"
    },
    {
      "inputs": [
        {
          "internalType": "address",
          "name": "nftAddress",
          "type": "address"
        },
        {
          "internalType": "uint256",
          "name": "tokenId",
          "type": "uint256"
        },
        {
          "internalType": "uint256",
          "name": "price",
          "type": "uint256"
        }
      ],
      "name": "listNFT",
      "outputs": [],
      "stateMutability": "nonpayable",
      "type": "function"
    },
    {
      "inputs": [],
      "name": "listingCount",
      "outputs": [
        {
          "internalType": "uint256",
          "name": "",
          "type": "uint256"
        }
      ],
      "stateMutability": "view",
      "type": "function"
    },
    {
      "inputs": [],
      "name": "listingExpiry",
      "outputs": [
        {
          "internalType": "uint256",
          "name": "",
          "type": "uint256"
        }
      ],
      "stateMutability": "view",
      "type": "function"
    },
    {
      "inputs": [
        {
          "internalType": "uint256",
          "name": "",
          "type": "uint256"
        }
      ],
      "name": "listings",
      "outputs": [
        {
          "internalType": "address",
          "name": "seller",
          "type": "address"
        },
        {
          "internalType": "address",
          "name": "buyer",
          "type": "address"
        },
        {
          "internalType": "address",
          "name": "nftAddress",
          "type": "address"
        },
        {
          "internalType": "uint256",
          "name": "price",
          "type": "uint256"
        },
        {
          "internalType": "uint256",
          "name": "tokenId",
          "type": "uint256"
        },
        {
          "internalType": "bool",
          "name": "isActive",
          "type": "bool"
        },
        {
          "internalType": "bool",
          "name": "isSold",
          "type": "bool"
        },
        {
          "internalType": "uint256",
          "name": "expired",
          "type": "uint256"
        }
      ],
      "stateMutability": "view",
      "type": "function"
    },
    {
      "inputs": [],
      "name": "owner",
      "outputs": [
        {
          "internalType": "address",
          "name": "",
          "type": "address"
        }
      ],
      "stateMutability": "view",
      "type": "function"
    },
    {
      "inputs": [
        {
          "internalType": "address",
          "name": "",
          "type": "address"
        },
        {
          "internalType": "uint256",
          "name": "",
          "type": "uint256"
        }
      ],
      "name": "purchaseByUser",
      "outputs": [
        {
          "internalType": "uint256",
          "name": "",
          "type": "uint256"
        }
      ],
      "stateMutability": "view",
      "type": "function"
    },
    {
      "inputs": [],
      "name": "renounceOwnership",
      "outputs": [],
      "stateMutability": "nonpayable",
      "type": "function"
    },
    {
      "inputs": [
        {
          "internalType": "uint256",
          "name": "newFee",
          "type": "uint256"
        }
      ],
      "name": "setFeePercentage",
      "outputs": [],
      "stateMutability": "nonpayable",
      "type": "function"
    },
    {
      "inputs": [
        {
          "internalType": "address",
          "name": "newOwner",
          "type": "address"
        }
      ],
      "name": "transferOwnership",
      "outputs": [],
      "stateMutability": "nonpayable",
      "type": "function"
    },
    {
      "inputs": [
        {
          "internalType": "address",
          "name": "",
          "type": "address"
        },
        {
          "internalType": "uint256",
          "name": "",
          "type": "uint256"
        }
      ],
      "name": "userListings",
      "outputs": [
        {
          "internalType": "uint256",
          "name": "",
          "type": "uint256"
        }
      ],
      "stateMutability": "view",
      "type": "function"
    }
  ],
  "bytecode": "0x60806040526002805562093a8060045534801561001b57600080fd5b5033600073ffffffffffffffffffffffffffffffffffffffff168173ffffffffffffffffffffffffffffffffffffffff160361008f5760006040517f1e4fbdf700000000000000000000000000000000000000000000000000000000815260040161008691906101b0565b60405180910390fd5b61009e816100ab60201b60201c565b50600180819055506101cb565b60008060009054906101000a900473ffffffffffffffffffffffffffffffffffffffff169050816000806101000a81548173ffffffffffffffffffffffffffffffffffffffff021916908373ffffffffffffffffffffffffffffffffffffffff1602179055508173ffffffffffffffffffffffffffffffffffffffff168173ffffffffffffffffffffffffffffffffffffffff167f8be0079c531659141344cd1fd0a4f28419497f9722a3daafe3b4186f6b6457e060405160405180910390a35050565b600073ffffffffffffffffffffffffffffffffffffffff82169050919050565b600061019a8261016f565b9050919050565b6101aa8161018f565b82525050565b60006020820190506101c560008301846101a1565b92915050565b612729806101da6000396000f3fe6080604052600436106100fe5760003560e01c80639c77226b11610095578063ae06c1b711610064578063ae06c1b714610302578063de74e57b1461032b578063decbb8b21461036f578063e58500aa146103ac578063f2fde38b146103d7576100fe565b80639c77226b14610246578063a001ecdd14610283578063a9b07c26146102ae578063ad05f1b4146102d9576100fe565b8063715018a6116100d1578063715018a61461019c57806386cfa7d3146101b357806387c35bc0146101f05780638da5cb5b1461021b576100fe565b8063305a67a81461010357806351421eab1461012c57806351ed82881461014357806369df83271461015f575b600080fd5b34801561010f57600080fd5b5061012a600480360381019061012591906119d1565b610400565b005b34801561013857600080fd5b5061014161058f565b005b61015d600480360381019061015891906119d1565b610648565b005b34801561016b57600080fd5b5061018660048036038101906101819190611a5c565b610b8d565b6040516101939190611b47565b60405180910390f35b3480156101a857600080fd5b506101b1610c24565b005b3480156101bf57600080fd5b506101da60048036038101906101d59190611b69565b610c38565b6040516101e79190611bb8565b60405180910390f35b3480156101fc57600080fd5b50610205610c69565b6040516102129190611d4f565b60405180910390f35b34801561022757600080fd5b50610230610f5d565b60405161023d9190611d80565b60405180910390f35b34801561025257600080fd5b5061026d60048036038101906102689190611a5c565b610f86565b60405161027a9190611b47565b60405180910390f35b34801561028f57600080fd5b5061029861101d565b6040516102a59190611bb8565b60405180910390f35b3480156102ba57600080fd5b506102c3611023565b6040516102d09190611bb8565b60405180910390f35b3480156102e557600080fd5b5061030060048036038101906102fb9190611d9b565b611029565b005b34801561030e57600080fd5b50610329600480360381019061032491906119d1565b611594565b005b34801561033757600080fd5b50610352600480360381019061034d91906119d1565b6115ea565b604051610366989796959493929190611dfd565b60405180910390f35b34801561037b57600080fd5b5061039660048036038101906103919190611b69565b6116ac565b6040516103a39190611bb8565b60405180910390f35b3480156103b857600080fd5b506103c16116dd565b6040516103ce9190611bb8565b60405180910390f35b3480156103e357600080fd5b506103fe60048036038101906103f99190611a5c565b6116e3565b005b60006005600083815260200190815260200160002090508060050160009054906101000a900460ff16610468576040517f08c379a000000000000000000000000000000000000000000000000000000000815260040161045f90611ed8565b60405180910390fd5b3373ffffffffffffffffffffffffffffffffffffffff168160000160009054906101000a900473ffffffffffffffffffffffffffffffffffffffff1673ffffffffffffffffffffffffffffffffffffffff1614806104f857506104c9610f5d565b73ffffffffffffffffffffffffffffffffffffffff163373ffffffffffffffffffffffffffffffffffffffff16145b610537576040517f08c379a000000000000000000000000000000000000000000000000000000000815260040161052e90611f44565b60405180910390fd5b60008160050160006101000a81548160ff0219169083151502179055507fc41d93b8bfbf9fd7cf5bfe271fd649ab6a6fec0ea101c23b82a2a28eca2533a9826040516105839190611bb8565b60405180910390a15050565b6000600190505b60035481116106455760006005600083815260200190815260200160002090508060060154421180156105d757508060050160009054906101000a900460ff165b156106315760008160050160006101000a81548160ff0219169083151502179055507fc41d93b8bfbf9fd7cf5bfe271fd649ab6a6fec0ea101c23b82a2a28eca2533a9826040516106289190611bb8565b60405180910390a15b50808061063d90611f93565b915050610596565b50565b610650611769565b60006005600083815260200190815260200160002090508060050160009054906101000a900460ff166106b8576040517f08c379a00000000000000000000000000000000000000000000000000000000081526004016106af90612027565b60405180910390fd5b80600601544211156106ff576040517f08c379a00000000000000000000000000000000000000000000000000000000081526004016106f690612093565b60405180910390fd5b8060030154341015610746576040517f08c379a000000000000000000000000000000000000000000000000000000000815260040161073d906120ff565b60405180910390fd5b3373ffffffffffffffffffffffffffffffffffffffff168160000160009054906101000a900473ffffffffffffffffffffffffffffffffffffffff1673ffffffffffffffffffffffffffffffffffffffff16036107d8576040517f08c379a00000000000000000000000000000000000000000000000000000000081526004016107cf9061216b565b60405180910390fd5b6000606460025483600301546107ee919061218b565b6107f891906121fc565b9050600081836003015461080c919061222d565b905060008360050160006101000a81548160ff02191690831515021790555060018360050160016101000a81548160ff021916908315150217905550338360010160006101000a81548173ffffffffffffffffffffffffffffffffffffffff021916908373ffffffffffffffffffffffffffffffffffffffff1602179055506000610895610f5d565b73ffffffffffffffffffffffffffffffffffffffff16836040516108b890612292565b60006040518083038185875af1925050503d80600081146108f5576040519150601f19603f3d011682016040523d82523d6000602084013e6108fa565b606091505b505090508061093e576040517f08c379a0000000000000000000000000000000000000000000000000000000008152600401610935906122f3565b60405180910390fd5b60008460000160009054906101000a900473ffffffffffffffffffffffffffffffffffffffff1673ffffffffffffffffffffffffffffffffffffffff168360405161098890612292565b60006040518083038185875af1925050503d80600081146109c5576040519150601f19603f3d011682016040523d82523d6000602084013e6109ca565b606091505b5050905080610a0e576040517f08c379a0000000000000000000000000000000000000000000000000000000008152600401610a059061235f565b60405180910390fd5b8460020160009054906101000a900473ffffffffffffffffffffffffffffffffffffffff1673ffffffffffffffffffffffffffffffffffffffff166342842e0e8660000160009054906101000a900473ffffffffffffffffffffffffffffffffffffffff163388600401546040518463ffffffff1660e01b8152600401610a979392919061237f565b600060405180830381600087803b158015610ab157600080fd5b505af1158015610ac5573d6000803e3d6000fd5b50505050600760003373ffffffffffffffffffffffffffffffffffffffff1673ffffffffffffffffffffffffffffffffffffffff1681526020019081526020016000208690806001815401808255809150506001900390600052602060002001600090919091909150553373ffffffffffffffffffffffffffffffffffffffff167fb47c52a971a941c629c2f7690d2a3bd407390d3c8eabc35473c70883a3d5da1687604051610b759190611bb8565b60405180910390a25050505050610b8a6117af565b50565b6060600660008373ffffffffffffffffffffffffffffffffffffffff1673ffffffffffffffffffffffffffffffffffffffff168152602001908152602001600020805480602002602001604051908101604052809291908181526020018280548015610c1857602002820191906000526020600020905b815481526020019060010190808311610c04575b50505050509050919050565b610c2c6117b8565b610c36600061183f565b565b60066020528160005260406000208181548110610c5457600080fd5b90600052602060002001600091509150505481565b6060600080600190505b6003548111610ce9576005600082815260200190815260200160002060050160009054906101000a900460ff168015610cc2575060056000828152602001908152602001600020600601544211155b15610cd6578180610cd290611f93565b9250505b8080610ce190611f93565b915050610c73565b5060008167ffffffffffffffff811115610d0657610d056123b6565b5b604051908082528060200260200182016040528015610d3f57816020015b610d2c61190b565b815260200190600190039081610d245790505b509050600080600190505b6003548111610f53576005600082815260200190815260200160002060050160009054906101000a900460ff168015610d99575060056000828152602001908152602001600020600601544211155b15610f405760056000828152602001908152602001600020604051806101000160405290816000820160009054906101000a900473ffffffffffffffffffffffffffffffffffffffff1673ffffffffffffffffffffffffffffffffffffffff1673ffffffffffffffffffffffffffffffffffffffff1681526020016001820160009054906101000a900473ffffffffffffffffffffffffffffffffffffffff1673ffffffffffffffffffffffffffffffffffffffff1673ffffffffffffffffffffffffffffffffffffffff1681526020016002820160009054906101000a900473ffffffffffffffffffffffffffffffffffffffff1673ffffffffffffffffffffffffffffffffffffffff1673ffffffffffffffffffffffffffffffffffffffff16815260200160038201548152602001600482015481526020016005820160009054906101000a900460ff161515151581526020016005820160019054906101000a900460ff16151515158152602001600682015481525050838381518110610f2657610f256123e5565b5b60200260200101819052508180610f3c90611f93565b9250505b8080610f4b90611f93565b915050610d4a565b5081935050505090565b60008060009054906101000a900473ffffffffffffffffffffffffffffffffffffffff16905090565b6060600760008373ffffffffffffffffffffffffffffffffffffffff1673ffffffffffffffffffffffffffffffffffffffff16815260200190815260200160002080548060200260200160405190810160405280929190818152602001828054801561101157602002820191906000526020600020905b815481526020019060010190808311610ffd575b50505050509050919050565b60025481565b60035481565b6000811161106c576040517f08c379a000000000000000000000000000000000000000000000000000000000815260040161106390612460565b60405180910390fd5b60008390503373ffffffffffffffffffffffffffffffffffffffff168173ffffffffffffffffffffffffffffffffffffffff16636352211e856040518263ffffffff1660e01b81526004016110c19190611bb8565b602060405180830381865afa1580156110de573d6000803e3d6000fd5b505050506040513d601f19601f820116820180604052508101906111029190612495565b73ffffffffffffffffffffffffffffffffffffffff1614611158576040517f08c379a000000000000000000000000000000000000000000000000000000000815260040161114f9061250e565b60405180910390fd5b8073ffffffffffffffffffffffffffffffffffffffff1663e985e9c533306040518363ffffffff1660e01b815260040161119392919061252e565b602060405180830381865afa1580156111b0573d6000803e3d6000fd5b505050506040513d601f19601f820116820180604052508101906111d49190612583565b8061128357503073ffffffffffffffffffffffffffffffffffffffff168173ffffffffffffffffffffffffffffffffffffffff1663081812fc856040518263ffffffff1660e01b815260040161122a9190611bb8565b602060405180830381865afa158015611247573d6000803e3d6000fd5b505050506040513d601f19601f8201168201806040525081019061126b9190612495565b73ffffffffffffffffffffffffffffffffffffffff16145b6112c2576040517f08c379a00000000000000000000000000000000000000000000000000000000081526004016112b9906125fc565b60405180910390fd5b6000600454426112d2919061261c565b9050600360008154809291906112e790611f93565b91905055506040518061010001604052803373ffffffffffffffffffffffffffffffffffffffff168152602001600073ffffffffffffffffffffffffffffffffffffffff1681526020018673ffffffffffffffffffffffffffffffffffffffff1681526020018481526020018581526020016001151581526020016000151581526020018281525060056000600354815260200190815260200160002060008201518160000160006101000a81548173ffffffffffffffffffffffffffffffffffffffff021916908373ffffffffffffffffffffffffffffffffffffffff16021790555060208201518160010160006101000a81548173ffffffffffffffffffffffffffffffffffffffff021916908373ffffffffffffffffffffffffffffffffffffffff16021790555060408201518160020160006101000a81548173ffffffffffffffffffffffffffffffffffffffff021916908373ffffffffffffffffffffffffffffffffffffffff160217905550606082015181600301556080820151816004015560a08201518160050160006101000a81548160ff02191690831515021790555060c08201518160050160016101000a81548160ff02191690831515021790555060e08201518160060155905050600660003373ffffffffffffffffffffffffffffffffffffffff1673ffffffffffffffffffffffffffffffffffffffff16815260200190815260200160002060035490806001815401808255809150506001900390600052602060002001600090919091909150558473ffffffffffffffffffffffffffffffffffffffff163373ffffffffffffffffffffffffffffffffffffffff167f723f73331eaee88eec7fc68ef60ab6ed15e4b90d0472b55eb92fa43910bab6dd600354878760405161158593929190612650565b60405180910390a35050505050565b61159c6117b8565b60648111156115e0576040517f08c379a00000000000000000000000000000000000000000000000000000000081526004016115d7906126d3565b60405180910390fd5b8060028190555050565b60056020528060005260406000206000915090508060000160009054906101000a900473ffffffffffffffffffffffffffffffffffffffff16908060010160009054906101000a900473ffffffffffffffffffffffffffffffffffffffff16908060020160009054906101000a900473ffffffffffffffffffffffffffffffffffffffff16908060030154908060040154908060050160009054906101000a900460ff16908060050160019054906101000a900460ff16908060060154905088565b600760205281600052604060002081815481106116c857600080fd5b90600052602060002001600091509150505481565b60045481565b6116eb6117b8565b600073ffffffffffffffffffffffffffffffffffffffff168173ffffffffffffffffffffffffffffffffffffffff160361175d5760006040517f1e4fbdf70000000000000000000000000000000000000000000000000000000081526004016117549190611d80565b60405180910390fd5b6117668161183f565b50565b6002600154036117a5576040517f3ee5aeb500000000000000000000000000000000000000000000000000000000815260040160405180910390fd5b6002600181905550565b60018081905550565b6117c0611903565b73ffffffffffffffffffffffffffffffffffffffff166117de610f5d565b73ffffffffffffffffffffffffffffffffffffffff161461183d57611801611903565b6040517f118cdaa70000000000000000000000000000000000000000000000000000000081526004016118349190611d80565b60405180910390fd5b565b60008060009054906101000a900473ffffffffffffffffffffffffffffffffffffffff169050816000806101000a81548173ffffffffffffffffffffffffffffffffffffffff021916908373ffffffffffffffffffffffffffffffffffffffff1602179055508173ffffffffffffffffffffffffffffffffffffffff168173ffffffffffffffffffffffffffffffffffffffff167f8be0079c531659141344cd1fd0a4f28419497f9722a3daafe3b4186f6b6457e060405160405180910390a35050565b600033905090565b604051806101000160405280600073ffffffffffffffffffffffffffffffffffffffff168152602001600073ffffffffffffffffffffffffffffffffffffffff168152602001600073ffffffffffffffffffffffffffffffffffffffff1681526020016000815260200160008152602001600015158152602001600015158152602001600081525090565b600080fd5b6000819050919050565b6119ae8161199b565b81146119b957600080fd5b50565b6000813590506119cb816119a5565b92915050565b6000602082840312156119e7576119e6611996565b5b60006119f5848285016119bc565b91505092915050565b600073ffffffffffffffffffffffffffffffffffffffff82169050919050565b6000611a29826119fe565b9050919050565b611a3981611a1e565b8114611a4457600080fd5b50565b600081359050611a5681611a30565b92915050565b600060208284031215611a7257611a71611996565b5b6000611a8084828501611a47565b91505092915050565b600081519050919050565b600082825260208201905092915050565b6000819050602082019050919050565b611abe8161199b565b82525050565b6000611ad08383611ab5565b60208301905092915050565b6000602082019050919050565b6000611af482611a89565b611afe8185611a94565b9350611b0983611aa5565b8060005b83811015611b3a578151611b218882611ac4565b9750611b2c83611adc565b925050600181019050611b0d565b5085935050505092915050565b60006020820190508181036000830152611b618184611ae9565b905092915050565b60008060408385031215611b8057611b7f611996565b5b6000611b8e85828601611a47565b9250506020611b9f858286016119bc565b9150509250929050565b611bb28161199b565b82525050565b6000602082019050611bcd6000830184611ba9565b92915050565b600081519050919050565b600082825260208201905092915050565b6000819050602082019050919050565b611c0881611a1e565b82525050565b60008115159050919050565b611c2381611c0e565b82525050565b61010082016000820151611c406000850182611bff565b506020820151611c536020850182611bff565b506040820151611c666040850182611bff565b506060820151611c796060850182611ab5565b506080820151611c8c6080850182611ab5565b5060a0820151611c9f60a0850182611c1a565b5060c0820151611cb260c0850182611c1a565b5060e0820151611cc560e0850182611ab5565b50505050565b6000611cd78383611c29565b6101008301905092915050565b6000602082019050919050565b6000611cfc82611bd3565b611d068185611bde565b9350611d1183611bef565b8060005b83811015611d42578151611d298882611ccb565b9750611d3483611ce4565b925050600181019050611d15565b5085935050505092915050565b60006020820190508181036000830152611d698184611cf1565b905092915050565b611d7a81611a1e565b82525050565b6000602082019050611d956000830184611d71565b92915050565b600080600060608486031215611db457611db3611996565b5b6000611dc286828701611a47565b9350506020611dd3868287016119bc565b9250506040611de4868287016119bc565b9150509250925092565b611df781611c0e565b82525050565b600061010082019050611e13600083018b611d71565b611e20602083018a611d71565b611e2d6040830189611d71565b611e3a6060830188611ba9565b611e476080830187611ba9565b611e5460a0830186611dee565b611e6160c0830185611dee565b611e6e60e0830184611ba9565b9998505050505050505050565b600082825260208201905092915050565b7f416c726561647920696e61637469766500000000000000000000000000000000600082015250565b6000611ec2601083611e7b565b9150611ecd82611e8c565b602082019050919050565b60006020820190508181036000830152611ef181611eb5565b9050919050565b7f4e6f7420617574686f72697a6564000000000000000000000000000000000000600082015250565b6000611f2e600e83611e7b565b9150611f3982611ef8565b602082019050919050565b60006020820190508181036000830152611f5d81611f21565b9050919050565b7f4e487b7100000000000000000000000000000000000000000000000000000000600052601160045260246000fd5b6000611f9e8261199b565b91507fffffffffffffffffffffffffffffffffffffffffffffffffffffffffffffffff8203611fd057611fcf611f64565b5b600182019050919050565b7f4c697374696e67206e6f74206163746976650000000000000000000000000000600082015250565b6000612011601283611e7b565b915061201c82611fdb565b602082019050919050565b6000602082019050818103600083015261204081612004565b9050919050565b7f4c697374696e6720686173206578706972656400000000000000000000000000600082015250565b600061207d601383611e7b565b915061208882612047565b602082019050919050565b600060208201905081810360008301526120ac81612070565b9050919050565b7f496e73756666696369656e74207061796d656e74000000000000000000000000600082015250565b60006120e9601483611e7b565b91506120f4826120b3565b602082019050919050565b60006020820190508181036000830152612118816120dc565b9050919050565b7f53656c6c65722063616e6e6f74207075726368617365206f776e204e46540000600082015250565b6000612155601e83611e7b565b91506121608261211f565b602082019050919050565b6000602082019050818103600083015261218481612148565b9050919050565b60006121968261199b565b91506121a18361199b565b92508282026121af8161199b565b915082820484148315176121c6576121c5611f64565b5b5092915050565b7f4e487b7100000000000000000000000000000000000000000000000000000000600052601260045260246000fd5b60006122078261199b565b91506122128361199b565b925082612222576122216121cd565b5b828204905092915050565b60006122388261199b565b91506122438361199b565b925082820390508181111561225b5761225a611f64565b5b92915050565b600081905092915050565b50565b600061227c600083612261565b91506122878261226c565b600082019050919050565b600061229d8261226f565b9150819050919050565b7f466565207472616e73666572206661696c656400000000000000000000000000600082015250565b60006122dd601383611e7b565b91506122e8826122a7565b602082019050919050565b6000602082019050818103600083015261230c816122d0565b9050919050565b7f53656c6c6572207472616e73666572206661696c656400000000000000000000600082015250565b6000612349601683611e7b565b915061235482612313565b602082019050919050565b600060208201905081810360008301526123788161233c565b9050919050565b60006060820190506123946000830186611d71565b6123a16020830185611d71565b6123ae6040830184611ba9565b949350505050565b7f4e487b7100000000000000000000000000000000000000000000000000000000600052604160045260246000fd5b7f4e487b7100000000000000000000000000000000000000000000000000000000600052603260045260246000fd5b7f5072696365206d7573742062652067726561746572207468616e207a65726f00600082015250565b600061244a601f83611e7b565b915061245582612414565b602082019050919050565b600060208201905081810360008301526124798161243d565b9050919050565b60008151905061248f81611a30565b92915050565b6000602082840312156124ab576124aa611996565b5b60006124b984828501612480565b91505092915050565b7f596f7520617265206e6f7420746865206f776e65720000000000000000000000600082015250565b60006124f8601583611e7b565b9150612503826124c2565b602082019050919050565b60006020820190508181036000830152612527816124eb565b9050919050565b60006040820190506125436000830185611d71565b6125506020830184611d71565b9392505050565b61256081611c0e565b811461256b57600080fd5b50565b60008151905061257d81612557565b92915050565b60006020828403121561259957612598611996565b5b60006125a78482850161256e565b91505092915050565b7f4d61726b6574706c616365206e6f7420617070726f7665640000000000000000600082015250565b60006125e6601883611e7b565b91506125f1826125b0565b602082019050919050565b60006020820190508181036000830152612615816125d9565b9050919050565b60006126278261199b565b91506126328361199b565b925082820190508082111561264a57612649611f64565b5b92915050565b60006060820190506126656000830186611ba9565b6126726020830185611ba9565b61267f6040830184611ba9565b949350505050565b7f4665652063616e6e6f74206265206d6f7265207468616e203130302500000000600082015250565b60006126bd601c83611e7b565b91506126c882612687565b602082019050919050565b600060208201905081810360008301526126ec816126b0565b905091905056fea26469706673582212206e999681e7f4fb0f08d320d31b2100393de1a2f56d7263d8a1f504ffa105a72364736f6c634300081c0033",
  "linkReferences": {},
  "deployedLinkReferences": {}
}