{
  "_format": "hh-sol-artifact-1",
  "contractName": "AINFT",
  "sourceName": "contracts/AINFT.sol",
  "abi": [
    {
      "inputs": [],
      "stateMutability": "nonpayable",
      "type": "constructor"
    },
    {
      "inputs": [
        {
          "internalType": "address",
          "name": "sender",
          "type": "address"
        },
        {
          "internalType": "uint256",
          "name": "tokenId",
          "type": "uint256"
        },
        {
          "internalType": "address",
          "name": "owner",
          "type": "address"
        }
      ],
      "name": "ERC721IncorrectOwner",
      "type": "error"
    },
    {
      "inputs": [
        {
          "internalType": "address",
          "name": "operator",
          "type": "address"
        },
        {
          "internalType": "uint256",
          "name": "tokenId",
          "type": "uint256"
        }
      ],
      "name": "ERC721InsufficientApproval",
      "type": "error"
    },
    {
      "inputs": [
        {
          "internalType": "address",
          "name": "approver",
          "type": "address"
        }
      ],
      "name": "ERC721InvalidApprover",
      "type": "error"
    },
    {
      "inputs": [
        {
          "internalType": "address",
          "name": "operator",
          "type": "address"
        }
      ],
      "name": "ERC721InvalidOperator",
      "type": "error"
    },
    {
      "inputs": [
        {
          "internalType": "address",
          "name": "owner",
          "type": "address"
        }
      ],
      "name": "ERC721InvalidOwner",
      "type": "error"
    },
    {
      "inputs": [
        {
          "internalType": "address",
          "name": "receiver",
          "type": "address"
        }
      ],
      "name": "ERC721InvalidReceiver",
      "type": "error"
    },
    {
      "inputs": [
        {
          "internalType": "address",
          "name": "sender",
          "type": "address"
        }
      ],
      "name": "ERC721InvalidSender",
      "type": "error"
    },
    {
      "inputs": [
        {
          "internalType": "uint256",
          "name": "tokenId",
          "type": "uint256"
        }
      ],
      "name": "ERC721NonexistentToken",
      "type": "error"
    },
    {
      "inputs": [
        {
          "internalType": "address",
          "name": "owner",
          "type": "address"
        }
      ],
      "name": "OwnableInvalidOwner",
      "type": "error"
    },
    {
      "inputs": [
        {
          "internalType": "address",
          "name": "account",
          "type": "address"
        }
      ],
      "name": "OwnableUnauthorizedAccount",
      "type": "error"
    },
    {
      "anonymous": false,
      "inputs": [
        {
          "indexed": true,
          "internalType": "address",
          "name": "owner",
          "type": "address"
        },
        {
          "indexed": true,
          "internalType": "address",
          "name": "approved",
          "type": "address"
        },
        {
          "indexed": true,
          "internalType": "uint256",
          "name": "tokenId",
          "type": "uint256"
        }
      ],
      "name": "Approval",
      "type": "event"
    },
    {
      "anonymous": false,
      "inputs": [
        {
          "indexed": true,
          "internalType": "address",
          "name": "owner",
          "type": "address"
        },
        {
          "indexed": true,
          "internalType": "address",
          "name": "operator",
          "type": "address"
        },
        {
          "indexed": false,
          "internalType": "bool",
          "name": "approved",
          "type": "bool"
        }
      ],
      "name": "ApprovalForAll",
      "type": "event"
    },
    {
      "anonymous": false,
      "inputs": [
        {
          "indexed": false,
          "internalType": "uint256",
          "name": "_fromTokenId",
          "type": "uint256"
        },
        {
          "indexed": false,
          "internalType": "uint256",
          "name": "_toTokenId",
          "type": "uint256"
        }
      ],
      "name": "BatchMetadataUpdate",
      "type": "event"
    },
    {
      "anonymous": false,
      "inputs": [
        {
          "indexed": false,
          "internalType": "uint256",
          "name": "_tokenId",
          "type": "uint256"
        }
      ],
      "name": "MetadataUpdate",
      "type": "event"
    },
    {
      "anonymous": false,
      "inputs": [
        {
          "indexed": true,
          "internalType": "address",
          "name": "to",
          "type": "address"
        },
        {
          "indexed": true,
          "internalType": "uint256",
          "name": "tokenId",
          "type": "uint256"
        },
        {
          "indexed": false,
          "internalType": "string",
          "name": "tokenURI",
          "type": "string"
        }
      ],
      "name": "Minted",
      "type": "event"
    },
    {
      "anonymous": false,
      "inputs": [
        {
          "indexed": true,
          "internalType": "address",
          "name": "previousOwner",
          "type": "address"
        },
        {
          "indexed": true,
          "internalType": "address",
          "name": "newOwner",
          "type": "address"
        }
      ],
      "name": "OwnershipTransferred",
      "type": "event"
    },
    {
      "anonymous": false,
      "inputs": [
        {
          "indexed": false,
          "internalType": "address",
          "name": "sender",
          "type": "address"
        },
        {
          "indexed": false,
          "internalType": "uint256",
          "name": "amount",
          "type": "uint256"
        }
      ],
      "name": "Received",
      "type": "event"
    },
    {
      "anonymous": false,
      "inputs": [
        {
          "indexed": true,
          "internalType": "address",
          "name": "from",
          "type": "address"
        },
        {
          "indexed": true,
          "internalType": "address",
          "name": "to",
          "type": "address"
        },
        {
          "indexed": true,
          "internalType": "uint256",
          "name": "tokenId",
          "type": "uint256"
        }
      ],
      "name": "Transfer",
      "type": "event"
    },
    {
      "inputs": [
        {
          "internalType": "address",
          "name": "to",
          "type": "address"
        },
        {
          "internalType": "string",
          "name": "tokenURI",
          "type": "string"
        }
      ],
      "name": "adminMint",
      "outputs": [
        {
          "internalType": "uint256",
          "name": "",
          "type": "uint256"
        }
      ],
      "stateMutability": "nonpayable",
      "type": "function"
    },
    {
      "inputs": [
        {
          "internalType": "address",
          "name": "",
          "type": "address"
        }
      ],
      "name": "allowedMinters",
      "outputs": [
        {
          "internalType": "bool",
          "name": "",
          "type": "bool"
        }
      ],
      "stateMutability": "view",
      "type": "function"
    },
    {
      "inputs": [
        {
          "internalType": "address",
          "name": "to",
          "type": "address"
        },
        {
          "internalType": "uint256",
          "name": "tokenId",
          "type": "uint256"
        }
      ],
      "name": "approve",
      "outputs": [],
      "stateMutability": "nonpayable",
      "type": "function"
    },
    {
      "inputs": [
        {
          "internalType": "address",
          "name": "owner",
          "type": "address"
        }
      ],
      "name": "balanceOf",
      "outputs": [
        {
          "internalType": "uint256",
          "name": "",
          "type": "uint256"
        }
      ],
      "stateMutability": "view",
      "type": "function"
    },
    {
      "inputs": [
        {
          "internalType": "uint256",
          "name": "tokenId",
          "type": "uint256"
        }
      ],
      "name": "burn",
      "outputs": [],
      "stateMutability": "nonpayable",
      "type": "function"
    },
    {
      "inputs": [
        {
          "internalType": "uint256",
          "name": "tokenId",
          "type": "uint256"
        }
      ],
      "name": "getApproved",
      "outputs": [
        {
          "internalType": "address",
          "name": "",
          "type": "address"
        }
      ],
      "stateMutability": "view",
      "type": "function"
    },
    {
      "inputs": [
        {
          "internalType": "address",
          "name": "owner",
          "type": "address"
        }
      ],
      "name": "getTokensByOwner",
      "outputs": [
        {
          "internalType": "uint256[]",
          "name": "",
          "type": "uint256[]"
        }
      ],
      "stateMutability": "view",
      "type": "function"
    },
    {
      "inputs": [
        {
          "internalType": "address",
          "name": "owner",
          "type": "address"
        },
        {
          "internalType": "address",
          "name": "operator",
          "type": "address"
        }
      ],
      "name": "isApprovedForAll",
      "outputs": [
        {
          "internalType": "bool",
          "name": "",
          "type": "bool"
        }
      ],
      "stateMutability": "view",
      "type": "function"
    },
    {
      "inputs": [
        {
          "internalType": "address",
          "name": "",
          "type": "address"
        }
      ],
      "name": "lastMintTimestamp",
      "outputs": [
        {
          "internalType": "uint256",
          "name": "",
          "type": "uint256"
        }
      ],
      "stateMutability": "view",
      "type": "function"
    },
    {
      "inputs": [
        {
          "internalType": "address",
          "name": "",
          "type": "address"
        }
      ],
      "name": "mintLimit",
      "outputs": [
        {
          "internalType": "uint256",
          "name": "",
          "type": "uint256"
        }
      ],
      "stateMutability": "view",
      "type": "function"
    },
    {
      "inputs": [
        {
          "internalType": "string",
          "name": "tokenURI",
          "type": "string"
        }
      ],
      "name": "mintNFT",
      "outputs": [
        {
          "internalType": "uint256",
          "name": "",
          "type": "uint256"
        }
      ],
      "stateMutability": "nonpayable",
      "type": "function"
    },
    {
      "inputs": [],
      "name": "mintingWindow",
      "outputs": [
        {
          "internalType": "uint256",
          "name": "",
          "type": "uint256"
        }
      ],
      "stateMutability": "view",
      "type": "function"
    },
    {
      "inputs": [],
      "name": "name",
      "outputs": [
        {
          "internalType": "string",
          "name": "",
          "type": "string"
        }
      ],
      "stateMutability": "view",
      "type": "function"
    },
    {
      "inputs": [],
      "name": "owner",
      "outputs": [
        {
          "internalType": "address",
          "name": "",
          "type": "address"
        }
      ],
      "stateMutability": "view",
      "type": "function"
    },
    {
      "inputs": [
        {
          "internalType": "uint256",
          "name": "tokenId",
          "type": "uint256"
        }
      ],
      "name": "ownerOf",
      "outputs": [
        {
          "internalType": "address",
          "name": "",
          "type": "address"
        }
      ],
      "stateMutability": "view",
      "type": "function"
    },
    {
      "inputs": [],
      "name": "renounceOwnership",
      "outputs": [],
      "stateMutability": "nonpayable",
      "type": "function"
    },
    {
      "inputs": [
        {
          "internalType": "address",
          "name": "user",
          "type": "address"
        }
      ],
      "name": "resetMintTimestamp",
      "outputs": [],
      "stateMutability": "nonpayable",
      "type": "function"
    },
    {
      "inputs": [
        {
          "internalType": "address",
          "name": "from",
          "type": "address"
        },
        {
          "internalType": "address",
          "name": "to",
          "type": "address"
        },
        {
          "internalType": "uint256",
          "name": "tokenId",
          "type": "uint256"
        }
      ],
      "name": "safeTransferFrom",
      "outputs": [],
      "stateMutability": "nonpayable",
      "type": "function"
    },
    {
      "inputs": [
        {
          "internalType": "address",
          "name": "from",
          "type": "address"
        },
        {
          "internalType": "address",
          "name": "to",
          "type": "address"
        },
        {
          "internalType": "uint256",
          "name": "tokenId",
          "type": "uint256"
        },
        {
          "internalType": "bytes",
          "name": "data",
          "type": "bytes"
        }
      ],
      "name": "safeTransferFrom",
      "outputs": [],
      "stateMutability": "nonpayable",
      "type": "function"
    },
    {
      "inputs": [
        {
          "internalType": "address",
          "name": "minter",
          "type": "address"
        },
        {
          "internalType": "bool",
          "name": "allowed",
          "type": "bool"
        }
      ],
      "name": "setAllowedMinter",
      "outputs": [],
      "stateMutability": "nonpayable",
      "type": "function"
    },
    {
      "inputs": [
        {
          "internalType": "address",
          "name": "operator",
          "type": "address"
        },
        {
          "internalType": "bool",
          "name": "approved",
          "type": "bool"
        }
      ],
      "name": "setApprovalForAll",
      "outputs": [],
      "stateMutability": "nonpayable",
      "type": "function"
    },
    {
      "inputs": [
        {
          "internalType": "bytes4",
          "name": "interfaceId",
          "type": "bytes4"
        }
      ],
      "name": "supportsInterface",
      "outputs": [
        {
          "internalType": "bool",
          "name": "",
          "type": "bool"
        }
      ],
      "stateMutability": "view",
      "type": "function"
    },
    {
      "inputs": [],
      "name": "symbol",
      "outputs": [
        {
          "internalType": "string",
          "name": "",
          "type": "string"
        }
      ],
      "stateMutability": "view",
      "type": "function"
    },
    {
      "inputs": [],
      "name": "tokenCount",
      "outputs": [
        {
          "internalType": "uint256",
          "name": "",
          "type": "uint256"
        }
      ],
      "stateMutability": "view",
      "type": "function"
    },
    {
      "inputs": [
        {
          "internalType": "uint256",
          "name": "tokenId",
          "type": "uint256"
        }
      ],
      "name": "tokenURI",
      "outputs": [
        {
          "internalType": "string",
          "name": "",
          "type": "string"
        }
      ],
      "stateMutability": "view",
      "type": "function"
    },
    {
      "inputs": [
        {
          "internalType": "address",
          "name": "from",
          "type": "address"
        },
        {
          "internalType": "address",
          "name": "to",
          "type": "address"
        },
        {
          "internalType": "uint256",
          "name": "tokenId",
          "type": "uint256"
        }
      ],
      "name": "transferFrom",
      "outputs": [],
      "stateMutability": "nonpayable",
      "type": "function"
    },
    {
      "inputs": [
        {
          "internalType": "address",
          "name": "newOwner",
          "type": "address"
        }
      ],
      "name": "transferOwnership",
      "outputs": [],
      "stateMutability": "nonpayable",
      "type": "function"
    },
    {
      "inputs": [],
      "name": "withdraw",
      "outputs": [],
      "stateMutability": "nonpayable",
      "type": "function"
    },
    {
      "stateMutability": "payable",
      "type": "receive"
    }
  ],
  "bytecode": "0x60806040526201518060095534801561001757600080fd5b506040518060400160405280600a81526020017f414920417274204e4654000000000000000000000000000000000000000000008152506040518060400160405280600581526020017f41494e465400000000000000000000000000000000000000000000000000000081525033600073ffffffffffffffffffffffffffffffffffffffff168173ffffffffffffffffffffffffffffffffffffffff16036100f75760006040517f1e4fbdf70000000000000000000000000000000000000000000000000000000081526004016100ee9190610233565b60405180910390fd5b6101068161012e60201b60201c565b508160019081610116919061049e565b508060029081610126919061049e565b505050610570565b60008060009054906101000a900473ffffffffffffffffffffffffffffffffffffffff169050816000806101000a81548173ffffffffffffffffffffffffffffffffffffffff021916908373ffffffffffffffffffffffffffffffffffffffff1602179055508173ffffffffffffffffffffffffffffffffffffffff168173ffffffffffffffffffffffffffffffffffffffff167f8be0079c531659141344cd1fd0a4f28419497f9722a3daafe3b4186f6b6457e060405160405180910390a35050565b600073ffffffffffffffffffffffffffffffffffffffff82169050919050565b600061021d826101f2565b9050919050565b61022d81610212565b82525050565b60006020820190506102486000830184610224565b92915050565b600081519050919050565b7f4e487b7100000000000000000000000000000000000000000000000000000000600052604160045260246000fd5b7f4e487b7100000000000000000000000000000000000000000000000000000000600052602260045260246000fd5b600060028204905060018216806102cf57607f821691505b6020821081036102e2576102e1610288565b5b50919050565b60008190508160005260206000209050919050565b60006020601f8301049050919050565b600082821b905092915050565b60006008830261034a7fffffffffffffffffffffffffffffffffffffffffffffffffffffffffffffffff8261030d565b610354868361030d565b95508019841693508086168417925050509392505050565b6000819050919050565b6000819050919050565b600061039b6103966103918461036c565b610376565b61036c565b9050919050565b6000819050919050565b6103b583610380565b6103c96103c1826103a2565b84845461031a565b825550505050565b600090565b6103de6103d1565b6103e98184846103ac565b505050565b5b8181101561040d576104026000826103d6565b6001810190506103ef565b5050565b601f82111561045257610423816102e8565b61042c846102fd565b8101602085101561043b578190505b61044f610447856102fd565b8301826103ee565b50505b505050565b600082821c905092915050565b600061047560001984600802610457565b1980831691505092915050565b600061048e8383610464565b9150826002028217905092915050565b6104a78261024e565b67ffffffffffffffff8111156104c0576104bf610259565b5b6104ca82546102b7565b6104d5828285610411565b600060209050601f83116001811461050857600084156104f6578287015190505b6105008582610482565b865550610568565b601f198416610516866102e8565b60005b8281101561053e57848901518255600182019150602085019450602081019050610519565b8683101561055b5784890151610557601f891682610464565b8355505b6001600288020188555050505b505050505050565b6136348061057f6000396000f3fe6080604052600436106101bb5760003560e01c806370a08231116100ec578063be13197b1161008a578063e985e9c511610064578063e985e9c514610672578063ecc06ae6146106af578063f2fde38b146106ec578063fb37e88314610715576101fb565b8063be13197b146105cf578063c1234f051461060c578063c87b56dd14610635576101fb565b806395d89b41116100c657806395d89b41146105275780639f181b5e14610552578063a22cb4651461057d578063b88d4fde146105a6576101fb565b806370a08231146104a8578063715018a6146104e55780638da5cb5b146104fc576101fb565b8063423afa66116101595780635919c74b116101335780635919c74b146103da5780636352211e1461041757806367d8c91b146104545780636af9c2051461047f576101fb565b8063423afa661461034b57806342842e0e1461038857806342966c68146103b1576101fb565b8063095ea7b311610195578063095ea7b3146102a557806323b872dd146102ce5780633ccfd60b146102f757806340398d671461030e576101fb565b806301ffc9a71461020057806306fdde031461023d578063081812fc14610268576101fb565b366101fb577f88a5966d370b9919b20f3e2c13ff65706f196a4e32cc2c12bf57088f8852587433346040516101f19291906126db565b60405180910390a1005b600080fd5b34801561020c57600080fd5b5061022760048036038101906102229190612770565b610752565b60405161023491906127b8565b60405180910390f35b34801561024957600080fd5b506102526107b3565b60405161025f9190612863565b60405180910390f35b34801561027457600080fd5b5061028f600480360381019061028a91906128b1565b610845565b60405161029c91906128de565b60405180910390f35b3480156102b157600080fd5b506102cc60048036038101906102c79190612925565b610861565b005b3480156102da57600080fd5b506102f560048036038101906102f09190612965565b610877565b005b34801561030357600080fd5b5061030c610979565b005b34801561031a57600080fd5b50610335600480360381019061033091906129b8565b6109d1565b6040516103429190612aa3565b60405180910390f35b34801561035757600080fd5b50610372600480360381019061036d91906129b8565b610a68565b60405161037f91906127b8565b60405180910390f35b34801561039457600080fd5b506103af60048036038101906103aa9190612965565b610a88565b005b3480156103bd57600080fd5b506103d860048036038101906103d391906128b1565b610aa8565b005b3480156103e657600080fd5b5061040160048036038101906103fc9190612bfa565b610b34565b60405161040e9190612c56565b60405180910390f35b34801561042357600080fd5b5061043e600480360381019061043991906128b1565b610c30565b60405161044b91906128de565b60405180910390f35b34801561046057600080fd5b50610469610c42565b6040516104769190612c56565b60405180910390f35b34801561048b57600080fd5b506104a660048036038101906104a19190612c9d565b610c48565b005b3480156104b457600080fd5b506104cf60048036038101906104ca91906129b8565b610cab565b6040516104dc9190612c56565b60405180910390f35b3480156104f157600080fd5b506104fa610d65565b005b34801561050857600080fd5b50610511610d79565b60405161051e91906128de565b60405180910390f35b34801561053357600080fd5b5061053c610da2565b6040516105499190612863565b60405180910390f35b34801561055e57600080fd5b50610567610e34565b6040516105749190612c56565b60405180910390f35b34801561058957600080fd5b506105a4600480360381019061059f9190612c9d565b610e3a565b005b3480156105b257600080fd5b506105cd60048036038101906105c89190612d7e565b610e50565b005b3480156105db57600080fd5b506105f660048036038101906105f191906129b8565b610e75565b6040516106039190612c56565b60405180910390f35b34801561061857600080fd5b50610633600480360381019061062e91906129b8565b610e8d565b005b34801561064157600080fd5b5061065c600480360381019061065791906128b1565b610edd565b6040516106699190612863565b60405180910390f35b34801561067e57600080fd5b5061069960048036038101906106949190612e01565b610ff0565b6040516106a691906127b8565b60405180910390f35b3480156106bb57600080fd5b506106d660048036038101906106d191906129b8565b611084565b6040516106e39190612c56565b60405180910390f35b3480156106f857600080fd5b50610713600480360381019061070e91906129b8565b61109c565b005b34801561072157600080fd5b5061073c60048036038101906107379190612e41565b611122565b6040516107499190612c56565b60405180910390f35b6000634906490660e01b7bffffffffffffffffffffffffffffffffffffffffffffffffffffffff1916827bffffffffffffffffffffffffffffffffffffffffffffffffffffffff191614806107ac57506107ab82611488565b5b9050919050565b6060600180546107c290612eb9565b80601f01602080910402602001604051908101604052809291908181526020018280546107ee90612eb9565b801561083b5780601f106108105761010080835404028352916020019161083b565b820191906000526020600020905b81548152906001019060200180831161081e57829003601f168201915b5050505050905090565b60006108508261156a565b5061085a826115f2565b9050919050565b610873828261086e61162f565b611637565b5050565b600073ffffffffffffffffffffffffffffffffffffffff168273ffffffffffffffffffffffffffffffffffffffff16036108e95760006040517f64a0ae920000000000000000000000000000000000000000000000000000000081526004016108e091906128de565b60405180910390fd5b60006108fd83836108f861162f565b611649565b90508373ffffffffffffffffffffffffffffffffffffffff168173ffffffffffffffffffffffffffffffffffffffff1614610973578382826040517f64283d7b00000000000000000000000000000000000000000000000000000000815260040161096a93929190612eea565b60405180910390fd5b50505050565b610981611863565b610989610d79565b73ffffffffffffffffffffffffffffffffffffffff166108fc479081150290604051600060405180830381858888f193505050501580156109ce573d6000803e3d6000fd5b50565b6060600d60008373ffffffffffffffffffffffffffffffffffffffff1673ffffffffffffffffffffffffffffffffffffffff168152602001908152602001600020805480602002602001604051908101604052809291908181526020018280548015610a5c57602002820191906000526020600020905b815481526020019060010190808311610a48575b50505050509050919050565b600b6020528060005260406000206000915054906101000a900460ff1681565b610aa383838360405180602001604052806000815250610e50565b505050565b3373ffffffffffffffffffffffffffffffffffffffff16610ac882610c30565b73ffffffffffffffffffffffffffffffffffffffff1614610b1e576040517f08c379a0000000000000000000000000000000000000000000000000000000008152600401610b1590612f6d565b60405180910390fd5b610b2833826118ea565b610b31816119ee565b50565b6000610b3e611863565b60086000815480929190610b5190612fbc565b919050555060006008549050610b678482611a74565b610b718184611b6d565b600d60008573ffffffffffffffffffffffffffffffffffffffff1673ffffffffffffffffffffffffffffffffffffffff168152602001908152602001600020819080600181540180825580915050600190039060005260206000200160009091909190915055808473ffffffffffffffffffffffffffffffffffffffff167fe7cd4ce7f2a465edc730269a1305e8a48bad821e8fb7e152ec413829c01a53c485604051610c1e9190612863565b60405180910390a38091505092915050565b6000610c3b8261156a565b9050919050565b60095481565b610c50611863565b80600b60008473ffffffffffffffffffffffffffffffffffffffff1673ffffffffffffffffffffffffffffffffffffffff16815260200190815260200160002060006101000a81548160ff0219169083151502179055505050565b60008073ffffffffffffffffffffffffffffffffffffffff168273ffffffffffffffffffffffffffffffffffffffff1603610d1e5760006040517f89c62b64000000000000000000000000000000000000000000000000000000008152600401610d1591906128de565b60405180910390fd5b600460008373ffffffffffffffffffffffffffffffffffffffff1673ffffffffffffffffffffffffffffffffffffffff168152602001908152602001600020549050919050565b610d6d611863565b610d776000611bc9565b565b60008060009054906101000a900473ffffffffffffffffffffffffffffffffffffffff16905090565b606060028054610db190612eb9565b80601f0160208091040260200160405190810160405280929190818152602001828054610ddd90612eb9565b8015610e2a5780601f10610dff57610100808354040283529160200191610e2a565b820191906000526020600020905b815481529060010190602001808311610e0d57829003601f168201915b5050505050905090565b60085481565b610e4c610e4561162f565b8383611c8d565b5050565b610e5b848484610877565b610e6f610e6661162f565b85858585611dfc565b50505050565b600a6020528060005260406000206000915090505481565b610e95611863565b6000600a60008373ffffffffffffffffffffffffffffffffffffffff1673ffffffffffffffffffffffffffffffffffffffff1681526020019081526020016000208190555050565b6060610ee88261156a565b506000600760008481526020019081526020016000208054610f0990612eb9565b80601f0160208091040260200160405190810160405280929190818152602001828054610f3590612eb9565b8015610f825780601f10610f5757610100808354040283529160200191610f82565b820191906000526020600020905b815481529060010190602001808311610f6557829003601f168201915b505050505090506000610f93611fad565b90506000815103610fa8578192505050610feb565b600082511115610fdd578082604051602001610fc5929190613040565b60405160208183030381529060405292505050610feb565b610fe684611fc4565b925050505b919050565b6000600660008473ffffffffffffffffffffffffffffffffffffffff1673ffffffffffffffffffffffffffffffffffffffff16815260200190815260200160002060008373ffffffffffffffffffffffffffffffffffffffff1673ffffffffffffffffffffffffffffffffffffffff16815260200190815260200160002060009054906101000a900460ff16905092915050565b600c6020528060005260406000206000915090505481565b6110a4611863565b600073ffffffffffffffffffffffffffffffffffffffff168173ffffffffffffffffffffffffffffffffffffffff16036111165760006040517f1e4fbdf700000000000000000000000000000000000000000000000000000000815260040161110d91906128de565b60405180910390fd5b61111f81611bc9565b50565b600061112c610d79565b73ffffffffffffffffffffffffffffffffffffffff163373ffffffffffffffffffffffffffffffffffffffff1614806111ae5750600b60003373ffffffffffffffffffffffffffffffffffffffff1673ffffffffffffffffffffffffffffffffffffffff16815260200190815260200160002060009054906101000a900460ff165b6111ed576040517f08c379a00000000000000000000000000000000000000000000000000000000081526004016111e4906130b0565b60405180910390fd5b6005600c60003373ffffffffffffffffffffffffffffffffffffffff1673ffffffffffffffffffffffffffffffffffffffff168152602001908152602001600020541061126f576040517f08c379a00000000000000000000000000000000000000000000000000000000081526004016112669061311c565b60405180910390fd5b600954600a60003373ffffffffffffffffffffffffffffffffffffffff1673ffffffffffffffffffffffffffffffffffffffff168152602001908152602001600020546112bc919061313c565b4210156112fe576040517f08c379a00000000000000000000000000000000000000000000000000000000081526004016112f5906131bc565b60405180910390fd5b42600a60003373ffffffffffffffffffffffffffffffffffffffff1673ffffffffffffffffffffffffffffffffffffffff168152602001908152602001600020819055506008600081548092919061135590612fbc565b91905055506000600854905061136b338261202d565b6113758184611b6d565b600d60003373ffffffffffffffffffffffffffffffffffffffff1673ffffffffffffffffffffffffffffffffffffffff168152602001908152602001600020819080600181540180825580915050600190039060005260206000200160009091909190915055600c60003373ffffffffffffffffffffffffffffffffffffffff1673ffffffffffffffffffffffffffffffffffffffff168152602001908152602001600020600081548092919061142b90612fbc565b9190505550803373ffffffffffffffffffffffffffffffffffffffff167fe7cd4ce7f2a465edc730269a1305e8a48bad821e8fb7e152ec413829c01a53c4856040516114779190612863565b60405180910390a380915050919050565b60007f80ac58cd000000000000000000000000000000000000000000000000000000007bffffffffffffffffffffffffffffffffffffffffffffffffffffffff1916827bffffffffffffffffffffffffffffffffffffffffffffffffffffffff1916148061155357507f5b5e139f000000000000000000000000000000000000000000000000000000007bffffffffffffffffffffffffffffffffffffffffffffffffffffffff1916827bffffffffffffffffffffffffffffffffffffffffffffffffffffffff1916145b8061156357506115628261204b565b5b9050919050565b600080611576836120b5565b9050600073ffffffffffffffffffffffffffffffffffffffff168173ffffffffffffffffffffffffffffffffffffffff16036115e957826040517f7e2732890000000000000000000000000000000000000000000000000000000081526004016115e09190612c56565b60405180910390fd5b80915050919050565b60006005600083815260200190815260200160002060009054906101000a900473ffffffffffffffffffffffffffffffffffffffff169050919050565b600033905090565b61164483838360016120f2565b505050565b600080611655846120b5565b9050600073ffffffffffffffffffffffffffffffffffffffff168373ffffffffffffffffffffffffffffffffffffffff1614611697576116968184866122b7565b5b600073ffffffffffffffffffffffffffffffffffffffff168173ffffffffffffffffffffffffffffffffffffffff1614611728576116d96000856000806120f2565b6001600460008373ffffffffffffffffffffffffffffffffffffffff1673ffffffffffffffffffffffffffffffffffffffff168152602001908152602001600020600082825403925050819055505b600073ffffffffffffffffffffffffffffffffffffffff168573ffffffffffffffffffffffffffffffffffffffff16146117ab576001600460008773ffffffffffffffffffffffffffffffffffffffff1673ffffffffffffffffffffffffffffffffffffffff168152602001908152602001600020600082825401925050819055505b846003600086815260200190815260200160002060006101000a81548173ffffffffffffffffffffffffffffffffffffffff021916908373ffffffffffffffffffffffffffffffffffffffff160217905550838573ffffffffffffffffffffffffffffffffffffffff168273ffffffffffffffffffffffffffffffffffffffff167fddf252ad1be2c89b69c2b068fc378daa952ba7f163c4a11628f55a4df523b3ef60405160405180910390a4809150509392505050565b61186b61162f565b73ffffffffffffffffffffffffffffffffffffffff16611889610d79565b73ffffffffffffffffffffffffffffffffffffffff16146118e8576118ac61162f565b6040517f118cdaa70000000000000000000000000000000000000000000000000000000081526004016118df91906128de565b60405180910390fd5b565b6000600d60008473ffffffffffffffffffffffffffffffffffffffff1673ffffffffffffffffffffffffffffffffffffffff168152602001908152602001600020905060005b81805490508110156119e857828282815481106119505761194f6131dc565b5b9060005260206000200154036119db578160018380549050611972919061320b565b81548110611983576119826131dc565b5b90600052602060002001548282815481106119a1576119a06131dc565b5b9060005260206000200181905550818054806119c0576119bf61323f565b5b600190038181906000526020600020016000905590556119e8565b8080600101915050611930565b50505050565b60006119fd6000836000611649565b9050600073ffffffffffffffffffffffffffffffffffffffff168173ffffffffffffffffffffffffffffffffffffffff1603611a7057816040517f7e273289000000000000000000000000000000000000000000000000000000008152600401611a679190612c56565b60405180910390fd5b5050565b600073ffffffffffffffffffffffffffffffffffffffff168273ffffffffffffffffffffffffffffffffffffffff1603611ae65760006040517f64a0ae92000000000000000000000000000000000000000000000000000000008152600401611add91906128de565b60405180910390fd5b6000611af483836000611649565b9050600073ffffffffffffffffffffffffffffffffffffffff168173ffffffffffffffffffffffffffffffffffffffff1614611b685760006040517f73c6ac6e000000000000000000000000000000000000000000000000000000008152600401611b5f91906128de565b60405180910390fd5b505050565b80600760008481526020019081526020016000209081611b8d919061341a565b507ff8e1a15aba9398e019f0b49df1a4fde98ee17ae345cb5f6b5e2c27f5033e8ce782604051611bbd9190612c56565b60405180910390a15050565b60008060009054906101000a900473ffffffffffffffffffffffffffffffffffffffff169050816000806101000a81548173ffffffffffffffffffffffffffffffffffffffff021916908373ffffffffffffffffffffffffffffffffffffffff1602179055508173ffffffffffffffffffffffffffffffffffffffff168173ffffffffffffffffffffffffffffffffffffffff167f8be0079c531659141344cd1fd0a4f28419497f9722a3daafe3b4186f6b6457e060405160405180910390a35050565b600073ffffffffffffffffffffffffffffffffffffffff168273ffffffffffffffffffffffffffffffffffffffff1603611cfe57816040517f5b08ba18000000000000000000000000000000000000000000000000000000008152600401611cf591906128de565b60405180910390fd5b80600660008573ffffffffffffffffffffffffffffffffffffffff1673ffffffffffffffffffffffffffffffffffffffff16815260200190815260200160002060008473ffffffffffffffffffffffffffffffffffffffff1673ffffffffffffffffffffffffffffffffffffffff16815260200190815260200160002060006101000a81548160ff0219169083151502179055508173ffffffffffffffffffffffffffffffffffffffff168373ffffffffffffffffffffffffffffffffffffffff167f17307eab39ab6107e8899845ad3d59bd9653f200f220920489ca2b5937696c3183604051611def91906127b8565b60405180910390a3505050565b60008373ffffffffffffffffffffffffffffffffffffffff163b1115611fa6578273ffffffffffffffffffffffffffffffffffffffff1663150b7a02868685856040518563ffffffff1660e01b8152600401611e5b9493929190613541565b6020604051808303816000875af1925050508015611e9757506040513d601f19601f82011682018060405250810190611e9491906135a2565b60015b611f1b573d8060008114611ec7576040519150601f19603f3d011682016040523d82523d6000602084013e611ecc565b606091505b506000815103611f1357836040517f64a0ae92000000000000000000000000000000000000000000000000000000008152600401611f0a91906128de565b60405180910390fd5b805160208201fd5b63150b7a0260e01b7bffffffffffffffffffffffffffffffffffffffffffffffffffffffff1916817bffffffffffffffffffffffffffffffffffffffffffffffffffffffff191614611fa457836040517f64a0ae92000000000000000000000000000000000000000000000000000000008152600401611f9b91906128de565b60405180910390fd5b505b5050505050565b606060405180602001604052806000815250905090565b6060611fcf8261156a565b506000611fda611fad565b90506000815111611ffa5760405180602001604052806000815250612025565b806120048461237b565b604051602001612015929190613040565b6040516020818303038152906040525b915050919050565b612047828260405180602001604052806000815250612449565b5050565b60007f01ffc9a7000000000000000000000000000000000000000000000000000000007bffffffffffffffffffffffffffffffffffffffffffffffffffffffff1916827bffffffffffffffffffffffffffffffffffffffffffffffffffffffff1916149050919050565b60006003600083815260200190815260200160002060009054906101000a900473ffffffffffffffffffffffffffffffffffffffff169050919050565b808061212b5750600073ffffffffffffffffffffffffffffffffffffffff168273ffffffffffffffffffffffffffffffffffffffff1614155b1561225f57600061213b8461156a565b9050600073ffffffffffffffffffffffffffffffffffffffff168373ffffffffffffffffffffffffffffffffffffffff16141580156121a657508273ffffffffffffffffffffffffffffffffffffffff168173ffffffffffffffffffffffffffffffffffffffff1614155b80156121b957506121b78184610ff0565b155b156121fb57826040517fa9fbf51f0000000000000000000000000000000000000000000000000000000081526004016121f291906128de565b60405180910390fd5b811561225d57838573ffffffffffffffffffffffffffffffffffffffff168273ffffffffffffffffffffffffffffffffffffffff167f8c5be1e5ebec7d5bd14f71427d1e84f3dd0314c0f7b2291e5b200ac8c7c3b92560405160405180910390a45b505b836005600085815260200190815260200160002060006101000a81548173ffffffffffffffffffffffffffffffffffffffff021916908373ffffffffffffffffffffffffffffffffffffffff16021790555050505050565b6122c283838361246d565b61237657600073ffffffffffffffffffffffffffffffffffffffff168373ffffffffffffffffffffffffffffffffffffffff160361233757806040517f7e27328900000000000000000000000000000000000000000000000000000000815260040161232e9190612c56565b60405180910390fd5b81816040517f177e802f00000000000000000000000000000000000000000000000000000000815260040161236d9291906126db565b60405180910390fd5b505050565b60606000600161238a8461252e565b01905060008167ffffffffffffffff8111156123a9576123a8612acf565b5b6040519080825280601f01601f1916602001820160405280156123db5781602001600182028036833780820191505090505b509050600082602083010190505b60011561243e578080600190039150507f3031323334353637383961626364656600000000000000000000000000000000600a86061a8153600a8581612432576124316135cf565b5b049450600085036123e9575b819350505050919050565b6124538383611a74565b61246861245e61162f565b6000858585611dfc565b505050565b60008073ffffffffffffffffffffffffffffffffffffffff168373ffffffffffffffffffffffffffffffffffffffff161415801561252557508273ffffffffffffffffffffffffffffffffffffffff168473ffffffffffffffffffffffffffffffffffffffff1614806124e657506124e58484610ff0565b5b8061252457508273ffffffffffffffffffffffffffffffffffffffff1661250c836115f2565b73ffffffffffffffffffffffffffffffffffffffff16145b5b90509392505050565b600080600090507a184f03e93ff9f4daa797ed6e38ed64bf6a1f010000000000000000831061258c577a184f03e93ff9f4daa797ed6e38ed64bf6a1f0100000000000000008381612582576125816135cf565b5b0492506040810190505b6d04ee2d6d415b85acef810000000083106125c9576d04ee2d6d415b85acef810000000083816125bf576125be6135cf565b5b0492506020810190505b662386f26fc1000083106125f857662386f26fc1000083816125ee576125ed6135cf565b5b0492506010810190505b6305f5e1008310612621576305f5e1008381612617576126166135cf565b5b0492506008810190505b612710831061264657612710838161263c5761263b6135cf565b5b0492506004810190505b60648310612669576064838161265f5761265e6135cf565b5b0492506002810190505b600a8310612678576001810190505b80915050919050565b600073ffffffffffffffffffffffffffffffffffffffff82169050919050565b60006126ac82612681565b9050919050565b6126bc816126a1565b82525050565b6000819050919050565b6126d5816126c2565b82525050565b60006040820190506126f060008301856126b3565b6126fd60208301846126cc565b9392505050565b6000604051905090565b600080fd5b600080fd5b60007fffffffff0000000000000000000000000000000000000000000000000000000082169050919050565b61274d81612718565b811461275857600080fd5b50565b60008135905061276a81612744565b92915050565b6000602082840312156127865761278561270e565b5b60006127948482850161275b565b91505092915050565b60008115159050919050565b6127b28161279d565b82525050565b60006020820190506127cd60008301846127a9565b92915050565b600081519050919050565b600082825260208201905092915050565b60005b8381101561280d5780820151818401526020810190506127f2565b60008484015250505050565b6000601f19601f8301169050919050565b6000612835826127d3565b61283f81856127de565b935061284f8185602086016127ef565b61285881612819565b840191505092915050565b6000602082019050818103600083015261287d818461282a565b905092915050565b61288e816126c2565b811461289957600080fd5b50565b6000813590506128ab81612885565b92915050565b6000602082840312156128c7576128c661270e565b5b60006128d58482850161289c565b91505092915050565b60006020820190506128f360008301846126b3565b92915050565b612902816126a1565b811461290d57600080fd5b50565b60008135905061291f816128f9565b92915050565b6000806040838503121561293c5761293b61270e565b5b600061294a85828601612910565b925050602061295b8582860161289c565b9150509250929050565b60008060006060848603121561297e5761297d61270e565b5b600061298c86828701612910565b935050602061299d86828701612910565b92505060406129ae8682870161289c565b9150509250925092565b6000602082840312156129ce576129cd61270e565b5b60006129dc84828501612910565b91505092915050565b600081519050919050565b600082825260208201905092915050565b6000819050602082019050919050565b612a1a816126c2565b82525050565b6000612a2c8383612a11565b60208301905092915050565b6000602082019050919050565b6000612a50826129e5565b612a5a81856129f0565b9350612a6583612a01565b8060005b83811015612a96578151612a7d8882612a20565b9750612a8883612a38565b925050600181019050612a69565b5085935050505092915050565b60006020820190508181036000830152612abd8184612a45565b905092915050565b600080fd5b600080fd5b7f4e487b7100000000000000000000000000000000000000000000000000000000600052604160045260246000fd5b612b0782612819565b810181811067ffffffffffffffff82111715612b2657612b25612acf565b5b80604052505050565b6000612b39612704565b9050612b458282612afe565b919050565b600067ffffffffffffffff821115612b6557612b64612acf565b5b612b6e82612819565b9050602081019050919050565b82818337600083830152505050565b6000612b9d612b9884612b4a565b612b2f565b905082815260208101848484011115612bb957612bb8612aca565b5b612bc4848285612b7b565b509392505050565b600082601f830112612be157612be0612ac5565b5b8135612bf1848260208601612b8a565b91505092915050565b60008060408385031215612c1157612c1061270e565b5b6000612c1f85828601612910565b925050602083013567ffffffffffffffff811115612c4057612c3f612713565b5b612c4c85828601612bcc565b9150509250929050565b6000602082019050612c6b60008301846126cc565b92915050565b612c7a8161279d565b8114612c8557600080fd5b50565b600081359050612c9781612c71565b92915050565b60008060408385031215612cb457612cb361270e565b5b6000612cc285828601612910565b9250506020612cd385828601612c88565b9150509250929050565b600067ffffffffffffffff821115612cf857612cf7612acf565b5b612d0182612819565b9050602081019050919050565b6000612d21612d1c84612cdd565b612b2f565b905082815260208101848484011115612d3d57612d3c612aca565b5b612d48848285612b7b565b509392505050565b600082601f830112612d6557612d64612ac5565b5b8135612d75848260208601612d0e565b91505092915050565b60008060008060808587031215612d9857612d9761270e565b5b6000612da687828801612910565b9450506020612db787828801612910565b9350506040612dc88782880161289c565b925050606085013567ffffffffffffffff811115612de957612de8612713565b5b612df587828801612d50565b91505092959194509250565b60008060408385031215612e1857612e1761270e565b5b6000612e2685828601612910565b9250506020612e3785828601612910565b9150509250929050565b600060208284031215612e5757612e5661270e565b5b600082013567ffffffffffffffff811115612e7557612e74612713565b5b612e8184828501612bcc565b91505092915050565b7f4e487b7100000000000000000000000000000000000000000000000000000000600052602260045260246000fd5b60006002820490506001821680612ed157607f821691505b602082108103612ee457612ee3612e8a565b5b50919050565b6000606082019050612eff60008301866126b3565b612f0c60208301856126cc565b612f1960408301846126b3565b949350505050565b7f596f7520617265206e6f7420746865206f776e65720000000000000000000000600082015250565b6000612f576015836127de565b9150612f6282612f21565b602082019050919050565b60006020820190508181036000830152612f8681612f4a565b9050919050565b7f4e487b7100000000000000000000000000000000000000000000000000000000600052601160045260246000fd5b6000612fc7826126c2565b91507fffffffffffffffffffffffffffffffffffffffffffffffffffffffffffffffff8203612ff957612ff8612f8d565b5b600182019050919050565b600081905092915050565b600061301a826127d3565b6130248185613004565b93506130348185602086016127ef565b80840191505092915050565b600061304c828561300f565b9150613058828461300f565b91508190509392505050565b7f4e6f7420616c6c6f77656420746f206d696e7400000000000000000000000000600082015250565b600061309a6013836127de565b91506130a582613064565b602082019050919050565b600060208201905081810360008301526130c98161308d565b9050919050565b7f4d696e74206c696d697420726561636865640000000000000000000000000000600082015250565b60006131066012836127de565b9150613111826130d0565b602082019050919050565b60006020820190508181036000830152613135816130f9565b9050919050565b6000613147826126c2565b9150613152836126c2565b925082820190508082111561316a57613169612f8d565b5b92915050565b7f4d696e74696e672077696e646f77206e6f742072656163686564207965740000600082015250565b60006131a6601e836127de565b91506131b182613170565b602082019050919050565b600060208201905081810360008301526131d581613199565b9050919050565b7f4e487b7100000000000000000000000000000000000000000000000000000000600052603260045260246000fd5b6000613216826126c2565b9150613221836126c2565b925082820390508181111561323957613238612f8d565b5b92915050565b7f4e487b7100000000000000000000000000000000000000000000000000000000600052603160045260246000fd5b60008190508160005260206000209050919050565b60006020601f8301049050919050565b600082821b905092915050565b6000600883026132d07fffffffffffffffffffffffffffffffffffffffffffffffffffffffffffffffff82613293565b6132da8683613293565b95508019841693508086168417925050509392505050565b6000819050919050565b600061331761331261330d846126c2565b6132f2565b6126c2565b9050919050565b6000819050919050565b613331836132fc565b61334561333d8261331e565b8484546132a0565b825550505050565b600090565b61335a61334d565b613365818484613328565b505050565b5b818110156133895761337e600082613352565b60018101905061336b565b5050565b601f8211156133ce5761339f8161326e565b6133a884613283565b810160208510156133b7578190505b6133cb6133c385613283565b83018261336a565b50505b505050565b600082821c905092915050565b60006133f1600019846008026133d3565b1980831691505092915050565b600061340a83836133e0565b9150826002028217905092915050565b613423826127d3565b67ffffffffffffffff81111561343c5761343b612acf565b5b6134468254612eb9565b61345182828561338d565b600060209050601f8311600181146134845760008415613472578287015190505b61347c85826133fe565b8655506134e4565b601f1984166134928661326e565b60005b828110156134ba57848901518255600182019150602085019450602081019050613495565b868310156134d757848901516134d3601f8916826133e0565b8355505b6001600288020188555050505b505050505050565b600081519050919050565b600082825260208201905092915050565b6000613513826134ec565b61351d81856134f7565b935061352d8185602086016127ef565b61353681612819565b840191505092915050565b600060808201905061355660008301876126b3565b61356360208301866126b3565b61357060408301856126cc565b81810360608301526135828184613508565b905095945050505050565b60008151905061359c81612744565b92915050565b6000602082840312156135b8576135b761270e565b5b60006135c68482850161358d565b91505092915050565b7f4e487b7100000000000000000000000000000000000000000000000000000000600052601260045260246000fdfea264697066735822122058079584fc3d04f410ae5e3ac253600498927c6c20e89a905fbf52da172e320f64736f6c634300081c0033",
  "linkReferences": {},
  "deployedLinkReferences": {}
}